:020000040000fa
:080000000002040000000000f2
:020000040000fa
:0400080018050000d7
:020000040000fa
:04000c0018050000d3
:020000040000fa
:0400100018050000cf
:020000040000fa
:0400140018050000cb
:020000040000fa
:0400180018050000c7
:020000040000fa
:04001c0018050000c3
:020000040000fa
:0400200018050000bf
:020000040000fa
:0400240018050000bb
:020000040000fa
:0400280018050000b7
:020000040000fa
:04002c0018050000b3
:020000040000fa
:0400300018050000af
:020000040000fa
:04003400e4020000e2
:020000040000fa
:0400380018050000a7
:020000040000fa
:04003c0018050000a3
:020000040000fa
:04004000180500009f
:020000040000fa
:040044000a030000ab
:020000040000fa
:040048003003000081
:020000040000fa
:04004c001805000093
:020000040000fa
:04005000180500008f
:020000040000fa
:04005400d4030000d1
:020000040000fa
:040058002c04000074
:020000040000fa
:04005c00a2030000fb
:020000040000fa
:04006000180500007f
:020000040000fa
:04006400180500007b
:020000040000fa
:040068001805000077
:020000040000fa
:04006c005404000038
:020000040000fa
:04007000180500006f
:020000040000fa
:04007400180500006b
:020000040000fa
:040078001805000067
:020000040000fa
:04007c001805000063
:020000040000fa
:04008000180500005f
:020000040000fa
:04008400180500005b
:020000040000fa
:040088001805000057
:020000040000fa
:04008c001805000053
:020000040000fa
:04009000180500004f
:020000040000fa
:04009400560300000f
:020000040000fa
:040098007c030000e5
:020000040000fa
:04009c001805000043
:020000040000fa
:0400a000180500003f
:020000040000fa
:0400a400180500003b
:020000040000fa
:0400a8001805000037
:020000040000fa
:0400ac001805000033
:020000040000fa
:0400b000180500002f
:020000040000fa
:0400b400180500002b
:020000040000fa
:0400b8001805000027
:020000040000fa
:0400bc001805000023
:020000040000fa
:0400c000180500001f
:020000040000fa
:0400c400180500001b
:020000040000fa
:0400c8001805000017
:020000040000fa
:0400cc001805000013
:020000040000fa
:0400d000180500000f
:020000040000fa
:0400d400180500000b
:020000040000fa
:0400d8001805000007
:020000040000fa
:0400dc001805000003
:020000040000fa
:0400e00018050000ff
:020000040000fa
:0400e40018050000fb
:020000040000fa
:0400e80018050000f7
:020000040000fa
:0400ec0018050000f3
:020000040000fa
:0400f00018050000ef
:020000040000fa
:0400f40018050000eb
:020000040000fa
:0400f80018050000e7
:020000040000fa
:0400fc0018050000e3
:020000040000fa
:0401000018050000de
:020000040000fa
:0401040018050000da
:020000040000fa
:0401080018050000d6
:020000040000fa
:04010c0018050000d2
:020000040000fa
:0401100018050000ce
:020000040000fa
:0401140018050000ca
:020000040000fa
:0401180018050000c6
:020000040000fa
:04011c0018050000c2
:020000040000fa
:0401200018050000be
:020000040000fa
:0401240018050000ba
:020000040000fa
:0401280018050000b6
:020000040000fa
:04012c0002040000c9
:020000040000fa
:0401300018050000ae
:020000040000fa
:0401340018050000aa
:020000040000fa
:0401380018050000a6
:020000040000fa
:04013c0018050000a2
:020000040000fa
:04014000180500009e
:020000040000fa
:04014400180500009a
:020000040000fa
:040148001805000096
:020000040000fa
:04014c001805000092
:020000040000fa
:04015000180500008e
:020000040000fa
:04015400180500008a
:020000040000fa
:040158001805000086
:020000040000fa
:04015c001805000082
:020000040000fa
:04016000180500007e
:020000040000fa
:04016400180500007a
:020000040000fa
:0402080018050000d5
:020000040000fa
:04020c0018050000d1
:020000040000fa
:0402100018050000cd
:020000040000fa
:0402140018050000c9
:020000040000fa
:0402180018050000c5
:020000040000fa
:04021c0018050000c1
:020000040000fa
:0402200018050000bd
:020000040000fa
:0402240018050000b9
:020000040000fa
:0402280018050000b5
:020000040000fa
:04022c0018050000b1
:020000040000fa
:0402300018050000ad
:020000040000fa
:0402340018050000a9
:020000040000fa
:0402380018050000a5
:020000040000fa
:04023c0018050000a1
:020000040000fa
:04024000180500009d
:020000040000fa
:040244001805000099
:020000040000fa
:040248001805000095
:020000040000fa
:04024c001805000091
:020000040000fa
:04025000180500008d
:020000040000fa
:040254001805000089
:020000040000fa
:040258001805000085
:020000040000fa
:04025c001805000081
:020000040000fa
:04026000180500007d
:020000040000fa
:040264001805000079
:020000040000fa
:040268001805000075
:020000040000fa
:04026c001805000071
:020000040000fa
:04027000180500006d
:020000040000fa
:040274001805000069
:020000040000fa
:040278001805000065
:020000040000fa
:04027c001805000061
:020000040000fa
:04028000180500005d
:020000040000fa
:040284001805000059
:020000040000fa
:040288001805000055
:020000040000fa
:04028c001805000051
:020000040000fa
:04029000180500004d
:020000040000fa
:040294001805000049
:020000040000fa
:040298001805000045
:020000040000fa
:04029c001805000041
:020000040000fa
:0402a000180500003d
:020000040000fa
:0402a4001805000039
:020000040000fa
:0402a8001805000035
:020000040000fa
:0402ac001805000031
:020000040000fa
:0402b000180500002d
:020000040000fa
:0402b4001805000029
:020000040000fa
:0402b8001805000025
:020000040000fa
:0402bc001805000021
:020000040000fa
:0402c000180500001d
:020000040000fa
:0402c4001805000019
:020000040000fa
:0402c8001805000015
:020000040000fa
:0402cc001805000011
:020000040000fa
:0402d000180500000d
:020000040000fa
:0402d4001805000009
:020000040000fa
:0402d8001805000005
:020000040000fa
:0402dc001805000001
:020000040000fa
:0402e00018050000fd
:020000040000fa
:0402e40018050000f9
:020000040000fa
:0402e80018050000f5
:020000040000fa
:0402ec0018050000f1
:020000040000fa
:0402f00018050000ed
:020000040000fa
:0402f40018050000e9
:020000040000fa
:0402f80018050000e5
:020000040000fa
:0402fc0018050000e1
:020000040000fa
:0403000018050000dc
:020000040000fa
:0403040018050000d8
:020000040000fa
:0403080018050000d4
:020000040000fa
:04030c0018050000d0
:020000040000fa
:0403100018050000cc
:020000040000fa
:0403140018050000c8
:020000040000fa
:0403180018050000c4
:020000040000fa
:04031c0018050000c0
:020000040000fa
:0403200018050000bc
:020000040000fa
:0403240018050000b8
:020000040000fa
:0403280018050000b4
:020000040000fa
:04032c0018050000b0
:020000040000fa
:0403300018050000ac
:020000040000fa
:0403340018050000a8
:020000040000fa
:0403380018050000a4
:020000040000fa
:04033c0018050000a0
:020000040000fa
:04034000180500009c
:020000040000fa
:040344001805000098
:020000040000fa
:040348001805000094
:020000040000fa
:04034c001805000090
:020000040000fa
:04035000180500008c
:020000040000fa
:040354001805000088
:020000040000fa
:040358001805000084
:020000040000fa
:04035c001805000080
:020000040000fa
:04036000180500007c
:020000040000fa
:040364001805000078
:020000040000fa
:100400002f5d21000e7f24000e01880000000000f7
:10041000000020000000e000020032000001200087
:100420002002880014000700830107000000e0009c
:1004300003003a00809123000100200002003700f1
:100440000000200001002000810f70000100320038
:1004500014000700000020000000e000020032004d
:1004600000000200000000000a0c02000000000072
:100470000040da000000fe004440a90020012000f6
:100480000000e0000300320000002000a00188000e
:100490004440a800000006008a1f78008b1f7800e7
:1004a0000000060091018800800478000000eb0045
:1004b0001a003700e284440032a0b4009905ba0063
:1004c000e284440032a0b4009906ba00e2844400f9
:1004d00032a0b4000006eb00476fde00fd07b2005b
:1004e000636ce10003003a00ebff07000000eb0043
:1004f0000a003700606ce10004003a00005deb0088
:100500008b05e900fdff3e00040037006168e10053
:10051000010032000086eb000b00070019c7ba008b
:100520001905ba000e04e00003003a000a00e000da
:10053000e0ff3a0000000600fe07b2009e018800be
:100540008a047800f5ff3700395dba008b05e900b1
:100550000c003200295dba008b05e900080032006a
:100560000c00e00003003a00e284440032a0b40032
:10057000f5ff370019ddba008b05e900faff3a00f4
:100580008904e800e184440032a0b40000000600c1
:10059000c213040000000000381504000000000031
:1005a000fe15040000000000c0160400000000005a
:1005b000d8160400000000006218040000000000cb
:1005c00076180400000000003600f800809fbe008e
:1005d000829fbe00849fbe00869fbe000000fa007e
:1005e0008460a900f0ad80000000e000020032004d
:1005f000f0ad8000000001000080fa004f03be0053
:100600004f02be004f01be004f00be003600f90091
:10061000004006003600f800809fbe00829fbe00aa
:10062000849fbe00869fbe000000fa0084e0a900ff
:1006300000ae80000000e0000200320000ae80004a
:10064000000001000080fa004f03be004f02be0010
:100650004f01be004f00be003600f900004006000a
:100660003600f800809fbe00829fbe00849fbe00bf
:10067000869fbe000000fa008500a90010ae800031
:100680000000e0000200320010ae80000000010017
:100690000080fa004f03be004f02be004f01be00b3
:1006a0004f00be003600f900004006003600f8009a
:1006b000809fbe00829fbe00849fbe00869fbe00ba
:1006c0000000fa008760a90020ae80000000e00072
:1006d0000200320020ae8000000001000080fa001d
:1006e0004f03be004f02be004f01be004f00be00d0
:1006f0003600f900004006003600f800809fbe007a
:10070000829fbe00849fbe00869fbe000000fa004c
:100710008780a90030ae80000000e00002003200b7
:1007200030ae8000000001000080fa004f03be00e0
:100730004f02be004f01be004f00be003600f90060
:1007400000400600809fbe00821f78000000fa0073
:1007500085a0a90076c8bf000080fb0001188000ba
:1007600000014000805c2100000041000108780089
:1007700076c8bf00e34f500004003e0076c8bf00bb
:100780000040e80076e8b700030037007668ef0025
:1007900010c0b30077e8b7000080fa004f0178007e
:1007a0004f00be00004006003600f800809fbe00eb
:1007b000829fbe00849fbe00869fbe000200fa009a
:1007c0008560a9000400370030118000004f7800d8
:1007d0001e80fb00460f07001011800061006000c2
:1007e0000000e000f8ff3a000080fa004f03be006e
:1007f0004f02be004f01be004f00be003600f900a0
:1008000000400600801f78000000fa008c20a9003c
:1008100010118000680060000000e000010032005c
:100820002262a90010118000640060000000e00056
:10083000010032002242a900101180006200600015
:100840000000e000010032002222a9000080fa002e
:100850004f007800004006003600f800809fbe0080
:10086000829fbe00849fbe00869fbe000000fa00eb
:100870008580a900ed170700e14f500002003a0003
:10088000f4170700010037004a68ef000080fa0003
:100890004f03be004f02be004f01be004f00be001e
:1008a0003600f900004006003600f800809fbe00c8
:1008b000829fbe00849fbe00869fbe000000fa009b
:1008c0008620a900411080000040200000806000c8
:1008d0000000e0002300320060c8bf00e14f50007c
:1008e00020003a0007e2a900401680004800de0020
:1008f000614060000080fb00610060004800dd0096
:1009000042168000f1ef2f008100610001007000ad
:1009100040168800cd02a800401680004900de0085
:10092000614060000080fb00610060004900dd0064
:1009300042168000f1df2f0081006100010070008d
:1009400040168800cd22a8000942a900000000003e
:1009500060c8bf000004e000fdff3a000602a800e6
:100960002c0037004110800000082000008060004b
:100970000000e0000200320008e2a9002500370074
:100980004110800000042000008060000000e000b2
:100990000200320008c2a9001e00370060c8bf0074
:1009a0000080fb00e20f50000f003200e20f500009
:1009b00003003c00e10f5000060032001300370036
:1009c000e30f50000a003200e40f50000d00320027
:1009d0000e0037006168ef0020c0b30060e8b70088
:1009e0007c1507000b0037007a1507000900370057
:1009f0006168ef0020c0b30060e8b700751507001c
:100a0000040037006068ef00020037006068ef0004
:100a1000000000000080fa004f03be004f02be003d
:100a20004f01be004f00be003600f9000040060036
:100a30000040da000000fe000000050003f0a20004
:100a4000889fbe008a9fbe008c1f78002a01070085
:100a5000310133006450e1004f0032006420e100b6
:100a60005200320003826c0007003b000905d000f1
:100a70000306d000820f54000c065d00020039000e
:100a80000200320089017800030678008582550053
:100a900004003d000003fd008103fd008502ea0023
:100aa0008b854200840f720002003b006000100042
:100ab000e08018006011b8000005eb007a28e10022
:100ac0000a00390006007800c75ddd00f707b200b4
:100ad000878075002d003700828171000a0178003f
:100ae000610560008180d1000080d3008502e900ab
:100af000f9ff3b00060440008784480002003b00e9
:100b000060041400e0841c000988a3000700320080
:100b10008a81710082817100610164008904d100c1
:100b20000884d3008b05e800170037000978a3007c
:100b300013003a000b00e000130034008b05e900bd
:100b40000804440089844c000a4474000978a30016
:100b50000d003a000b00e000070034008b05e900af
:100b60000804440089844c0001003a000b00200076
:100b70000978a300f7ff32000001eb000200370004
:100b8000828171000a017800a00007000cf0a70024
:100b900001f0a000e90037006420e10002003a0003
:100ba000838f6c00e90033000801be000200be0024
:100bb000e2003700889fbe008a9fbe008c1f78002d
:100bc000cd000700d400330003866c006450e100c0
:100bd0002e0032006420e100330032006150e10059
:100be0002f0032006120e100310032008585550080
:100bf000eb07b000090020000804200005003700c2
:100c00000804440089844c000a00310006034300b4
:100c100087834b000001530081815b00f8ff3300a4
:100c20000203be000800a0000804440089844c00b0
:100c3000f6ff3900c639dd00830173000100320080
:100c4000130020008904d1000884d3000998a30070
:100c5000050032000800a7000300a0008904d100ad
:100c60000884d3008b05e8008904d1000884d300f0
:100c70000001eb000281d2006400070001f0a10036
:100c80000cf0a70001f0a000ac0037006420e100e8
:100c9000ae0032000801be000200be00f7ff3700c0
:100ca0006120e100a90032006000b800f3ff3700c6
:100cb0000000200001f82700f0ff3700839f680044
:100cc0000100e00002003d0060001000e08018001c
:100cd0000300e00002003d0060011100e081190006
:100ce000060107004f00e00002003b00600010001a
:100cf000e080180000000600140020003a023700cf
:100d0000f4ff2f00380237000001be006500070025
:100d10000470a70003f0a1006509b10016003200bd
:100d20000d0035006828e10006003500f0ff2f00b7
:100d3000f1ff27000300e00013003b000100280042
:100d40000000050000004000818048008502e900a5
:100d5000fcff3a0008003700f88f420002003c0018
:100d60008000eb00000005008100d1000080d3006e
:100d70008502e800fcff3a000300e00002003b00af
:100d800060001000e0801800000006000001be00b6
:100d9000440007000470a70003f0a10003f8a300bb
:100da00013003a006509b100100032000900350057
:100db0006928e1000200350001002800000005005c
:100dc00000004000818048008502e900fcff3a00f5
:100dd00000000600f88f4200050035008100d100b8
:100de0000080d3008502e800fcff3a000000060006
:100df0008000eb00000005004f89de0082017800d2
:100e0000140237006011b800220237008100200070
:100e1000618055000b003d000b00200061fe2f009b
:100e20000100e1001d003400828171006101640055
:100e30008904d1000884d3000000e800faff3a00da
:100e40007100200061006400030070000200600077
:100e50000900320061044400e0844c000988a500c8
:100e6000050032008b05e8006808e10002003a0046
:100e70008904d1000884d300f20f20000258e10059
:100e800005003d00c75ddd00f907b20089807500ef
:100e900008007800000006000bf827008b0078009f
:100ea00000000500c70ade00f107b200f50fb2002e
:100eb00008003200e1cf4200020032000170a000c1
:100ec00024000500810f70000100320004080500b5
:100ed00044000500810f700002003a001400050074
:100ee0008502e9000000400081c04800fcff3b0093
:100ef0000170a000240005000004be00e9ff070007
:100f00000003be000405be000200be00e5ff0700ae
:100f1000844f7500000006000200be006450e1002e
:100f2000050036006420e100020036000968a300d5
:100f300001003a000800be000160a0004f067800e2
:100f40004f05be004f04be0000000600f0ff2f005a
:100f5000f1ff2700f9ff3700889fbe008a9fbe007f
:100f60008c1f7800e4ff0700ebff330003866c0062
:100f70006450e100240032006420e10027003200c8
:100f80006150e100220032006120e10021003200c6
:100f90008b854200eb07b1000134b800003ab8007d
:100fa0000804420089844a00013ab8000030b800c1
:100fb0008880400009014a0004003300000040001e
:100fc00081804800020149008b05e900c909dd0064
:100fd000830170000100320013002000c814de00fd
:100fe0004814dd004709de001200b200c808de0028
:100ff0000884700085ff070001f0a1000cf0a70035
:1010000001f0a000cdff37006120e100cfff3200ea
:101010000801be000200be00f7ff37006150e1008a
:10102000fcff3a00c9ff3700889fbe008a9fbe00c0
:101030008c1f78000004be009aff07000478a3000c
:1010400026003a006120e1002500320009f8a300e3
:1010500025003a006420e10021003200f507b100cc
:101060000508a30002003200000040008180480013
:101070006044b8000310200002002000000040007f
:10108000818048000805440089854c000a0541001c
:101090008b8549000a0550008b85580003003300fa
:1010a0000a00be0002047400838474008301d1002e
:1010b0000281d300830f7100f0ff3a008904d10050
:1010c0000884d3006001490082017800c1adde00d0
:1010d000fb07b0004dff070098ff37000960a00034
:1010e0000800be0095ff370012022000c2438800ae
:1010f000f0ff2f00f1ff270090ff37006022b800bb
:10110000060220000000d0008180d2000482d200bc
:101110008582d2000000a0000202520083825a00a1
:10112000030031000202420083824a000000a10055
:101130000603e900f3ff3a0000000600889fbe00a6
:101140008a9fbe0030044200b0844a0030054b0044
:1011500090854b006000b1000898be000a90be0068
:101160000440e10005c8e10006d0e10007d8e10035
:1011700002003100680040001008e8004f05be0082
:101180004f04be0000000600889fbe008a9fbe007c
:101190003004be002005be000418540005985c0011
:1011a00006185d0007985d00110020000440e10072
:1011b00005c8e10006d0e10007d8e10001003900d0
:1011c0008000eb00108810004f05be004f04be00e9
:1011d000000006001200fa00889fbe008a9fbe0031
:1011e0008c9fbe00e0b79f00f1b79f0082bf9f00b9
:1011f00093bf9f000605be000404be000000eb0084
:10120000d0b79f00c0b79f00b0b79f00a0b79f00a6
:1012100090b79f000006eb005fb19700cfb097003a
:10122000820141003fb097000200e00004003d0051
:10123000370007007e805700c0ff0700030037001b
:10124000330007007e805700cfff0700dfb697000e
:101250000d00e0000c0035006fb29700ffb2970060
:101260000fbb97009fbb97001000200001002000db
:101270006011b800000272008182720002037300e4
:10128000838373001b0007000c06e80001042000a4
:10129000810f5600e0ff3a000d00e00004003d0021
:1012a0000802be000a03be007e805700a3ff0700ad
:1012b0005fa897000000e00005003a001fb2970009
:1012c000afb297003fb39700cfb397000900070074
:1012d0006fb09700ffb097000fb997009fb99700c4
:1012e0004f06be004f05be004f04be000080fa004e
:1012f000000006000100070000000600a4b79f00e0
:10130000b5b79f00c6b79f00d7b79f000000060083
:101310004f09de0082817100b3b79f004f01de00ec
:101320008180400082807000a1b79f008fb097003d
:101330004f09de00000040000200700090b79f00df
:101340007fa897004f01de008180400082807000fe
:1013500081b79f000d0007004f3ade0000004000fb
:1013600004007000f0af9f00080007000402420074
:1013700085824a0006034b0087834b00dfff07008e
:101380000802be000a03be00000006002fb297004c
:10139000bfb297004fb39700dfb39700000006007d
:1013a000881f780018002000881f780089ff070038
:1013b0008f87e9004f04780000000600801feb00d3
:1013c00084ff07008f87e90000000600889fbe00a9
:1013d0008a9fbe00e00f5000e08f5800e00f5900d8
:1013e000e08f59000c003d006044b8006055b80023
:1013f0000000540081805c0002015d0083815d007b
:10140000180020001500070008003d001800070024
:101410000004eb00050037000004eb000f0007009c
:1014200002003d001200070018002000dcff07004a
:101430000800e000060032006022b8006033b80007
:101440000000520081805a0002015b0083815b0032
:101450004f05be004f04be0000000600e00f520022
:10146000e08f5a00e00f5b00e08f5b000000060099
:101470006044b8006055b8000402540085825c00e6
:1014800006035d0087835d0000000600889fbe00a4
:101490008a9fbe008c1f7800e00f5000e08f58003c
:1014a000e00f5900e08f59000d003d006044b80086
:1014b0006055b8000000540081805c0002015d00ae
:1014c00083815d001c0020000820e10009a8e100e4
:1014d0000ab0e1000bb8e1000d003d000800370044
:1014e0000006eb00e00f5200e08f5a00e00f5b00b7
:1014f000e08f5b0006003d006044b8006055b80016
:101500000402540085825c0006035d0087835d0051
:10151000aaff07000c00e000060032006022b800bd
:101520006033b8000000520081805a0002015b0065
:1015300083815b004f0678004f05be004f04be005c
:1015400000000600889fbe008a9fbe008c1f7800a6
:101550000006eb00e00f5000e08f5800e00f59004c
:10156000e08f590007003d006044b8006055b800a6
:101570000000540081805c0002015d0083815d00f9
:101580001c002000e00f5200e08f5a00e00f5b00cb
:10159000e08f5b0007003d006044b8006055b80074
:1015a0000402540085825c0006035d0087835d00b1
:1015b0000c00a200660007000c00e00006003200ec
:1015c0006022b8006033b8000000520081805a00e9
:1015d00002015b0083815b004f0678004f05be006f
:1015e0004f04be0000000600889fbe008a9fbe0018
:1015f000841f780040fe07004f0078001100330080
:10160000f0ff2f00838f6c0006003b00040565008f
:101610000a00a7000800370009f0a600100020000b
:1016200008003700820f5400838f5c0003003900ec
:101630001000200001003e000000200009f0a7007b
:101640000000ea004f05be004f04be000000e000ad
:1016500000000600881f7800030478000300e00003
:1016600007003d0060001000e080180060011900d4
:10167000e081190002003b0001f02d00030037005b
:101680000400070008f0a70001f0a0004f04780054
:1016900000000600889fbe008a9fbe000082700086
:1016a0000402710004827100260032000004be00b2
:1016b0000200be006011b8006b09200095022000f6
:1016c0000182cf000a0039000541b1000082cf003d
:1016d000070039000541b1000982cf00040039003c
:1016e0000541b1000882cf00010039000541b10079
:1016f00005425200120032000a003b008281710054
:10170000610164008100d1000080d3008984d3008e
:101710000884d3008b05e8000442e800f7ff3a0094
:10172000070037000804440089844c00000048008a
:10173000818048008b05e9000442e900f9ff3a0086
:10174000b2fd07004f05be004f04be0000000600ba
:10175000889fbe008a9fbe008c9fbe000404b80014
:101760000506b8008904460060854e000606b800ec
:101770000a054600e0854e000706b8008b054600c6
:10178000040eb800890446000a854e00e0854d002d
:10179000050eb8000a0546008b854e00060eb800ff
:1017a0008b0546000416b8000a0546008b854e00de
:1017b0000516b8008b054600041eb8008b054600d0
:1017c0000800be000a01be004f06be004f05be0065
:1017d0004f04be0000000600800078003104e000e5
:1017e000feff3a000080ea00008040000000060092
:020000040000fa
:1017f000d04000001806000000d00000612c00005e
:1018000007070000d05100002c070000d040000066
:0418100018060000b6
:020000040000fa
:101814001a00fa00889fbe00291707003016070037
:10182400731607000043eb0045c0b30014c0b300b7
:10183400213c210002002000832c24000040eb0006
:10184400e70a07000043eb0045c0b30014c0b3002f
:101854008153210002002000832c240010c0b30017
:10186400df0a07000043eb0045c0b30014c0b30017
:10187400e15f2100020020006349240020c0b3007e
:10188400d70a070016c0b30065c0b30014c0b30084
:10189400016c210002002000a347240030c0b300e3
:1018a400cf0a070016c0b30035c0b30014c0b3009c
:1018b400816d2100020020008324240040c0b30075
:1018c400c70a0700c8160700d1160700da16070072
:1018d4005c1307003e10070000a8210061002000ef
:1018e4002017070000902000d10320001d170700d7
:1018f400c4e2a800c542a800c422a9008025200093
:1019040001002000d0a98800e1a98800000020007f
:10191400a147240070a9880081a988000000200044
:10192400a1472400f0a8880001a988006000b8003d
:10193400b0a98800c1a988006000b80090a98800f7
:10194400a1a988006000b80040aa880051aa8800b4
:101954006000b80060aa880071aa88006000b8001e
:1019640080aa880091aa880000002800214a240047
:1019740000aa880011aa880000002400c151240094
:10198400b0a88800c1a88800a099290091f123007b
:10199400d0a88800e1a8880000482800e1012000c0
:1019a40040ab880051ab8800e0532100c1c0b300b4
:1019b40001487800405021008040eb000148780045
:1019c40000002000011f2c0090a88800a1a8880016
:1019d40050168000700060000000e0001d003a0016
:1019e40090168000640060000000e00019003a00d6
:1019f4004c68ef00400d24008189230020408800ba
:101a040031408800bc05070080252000010020002b
:101a1400d0a98800e1a9880000002800214a2400f8
:101a240090428800a14288002386210022c0b3008e
:101a3400a12c200010c0b300860d0700638721008d
:101a44000041eb00212d200020c0b300810d0700d0
:101a54001b003700d01d2200518c23002040880039
:101a640031408800a4050700204e2000010020001a
:101a7400d0a98800e1a988002386210022c0b300f0
:101a8400212d200010c0b300720d07002286210012
:101a9400411f200010c0b300df0d07006387210041
:101aa4000041eb00212d200020c0b300690d070088
:101ab40062872100411f200020c0b300d60d07001b
:101ac40050168000680060000000e00004003a0046
:101ad4006000b80040aa880051aa8800c4e2a800a7
:101ae400391607000004e000620032003a160700cd
:101af40031160700100798001e00900010007800af
:101b0400000f98001e0090000080e800100078008c
:101b1400100f98001e009000640040001000780030
:101b2400200f98001e00900066004000100078000e
:101b3400300f98001e0090006800400010007800ec
:101b4400400f98000e0890008000eb00acfc0700ea
:101b54003233230033a52300fefc070050a888007d
:101b640061a88800400a2700d1f9230020079800c3
:101b74003107980050a8800061a88000a2702d0051
:101b840033da2300acfb07004007980051079800a4
:101b940010002000000f780018c0b3006011b800d6
:101ba4004e009000de00900052fc07000000e000b0
:101bb400010035000044eb000804e000030032009b
:101bc4000080eb00000f78000200370010002000b6
:101bd400000f780018c0b3006011b8004e009000e8
:101be400de00900045fc07000000e00001003c001e
:101bf4000044eb000804e000050032004e009000b1
:101c0400de0090000001be008cfb070005003700d9
:101c14004e009000de00900001f0a2000001be0022
:101c240086fb07002e019000be019000e0fb070038
:101c3400fcfc07000004be001e007800cf80de001c
:101c44006cfc07000001be000800be00c1fc0700d8
:101c54006007980071079800a2df2e00b3a6230046
:101c64006e009000fe009000bafc070030a98800c6
:101c740041a98800140007003a010700ae010700db
:101c84001e0207008e0207008dff37000000fa00d5
:101c94001a68ef001ac8bf0019e8b70019c8bf00d6
:101ca40018e8b7000828ef000000eb009c010700cb
:101cb4000000eb000b0207000000eb007a020700b3
:101cc4000080fa00000006000000fa00881f780077
:101cd40040408000e50f5000b2003200e50f500094
:101ce40009003e00e10f500028003200e10f5000cf
:101cf4000e003900e20f50003d003200e30f5000a7
:101d04004e00320014013700e70f50007f0032000c
:101d1400e70f5000b6003900e80f50008800320089
:101d2400e90f5000f30032000b013700c422a80071
:101d34004cc8bf000004e0000c00320018c8bf000b
:101d44000004e000f300320019c8bf000004e00002
:101d5400f20032001ac8bf000004e000f1003200b3
:101d64001000200040408800fb00370018c8bf0066
:101d74000004e000ed0032002000200068010700ac
:101d84001000200040408800f30037005ec8bf0008
:101d94000004e0000a003200c422a80010c0b3000e
:101da4001be8b7002000200040408800004080006d
:101db40011408000504088006140880001003700d5
:101dc4001b68ef00c0562100104078000004e000ba
:101dd400d8003200900020004040880011c0b300b9
:101de4000040eb0028090700c422a800da003700ed
:101df4004cc8bf000004e0000300320020002000b3
:101e0400470107000200370040002000440107009a
:101e140020002000b3010700200020002202070058
:101e240000408000114080005040880061408800dc
:101e34003000200040408800c700370010a980000f
:101e440021a98000d0fb07000001be0050408000a3
:101e5400614080000201400083814800004080000e
:101e640011408000800f5100818f590004003e0012
:101e7400c4e2a900c542a9007000200040408800c7
:101e840054a8800065a88000b0a88000c1a8800084
:101e940018c0b3000001be000400be0097fb070099
:101ea4000000e00001003d000044eb000804e000f5
:101eb4000d003a0054a9800065a98000d0a88000d4
:101ec400e1a8800018c0b3000001be000400be00f9
:101ed4008afb07000000e00001003d000044eb0025
:101ee4000804e00002003200700020004040880036
:101ef4005ec8bf000004e00090003a00100020001b
:101f040040408800c422a9009300370060002000ec
:101f14000301070060002000720107006000200038
:101f2400e10107000040800011408000504088001b
:101f3400614088008000200040408800860037000f
:101f4400f0a8800001a980008ffb07000001be00fb
:101f540050408000614080000201400083814800bd
:101f64000040800011408000800f5100818f590093
:101f740005003e006000b80050a9880061a98800ef
:101f840050002000404088005ec8bf000004e0000c
:101f94006c003a001000200040408800c422a900d0
:101fa4006d0037004cc8bf000004e000030032009d
:101fb40040002000da000700020037002000200063
:101fc400d700070040002000460107004000200021
:101fd400b501070000408000114080005040880097
:101fe4006140880060002000404088005a003700ab
:101ff40040502100104078000004e000220032002c
:1020040070a9800081a980005ffb07008101d100d5
:102014000081d300504080006140800002014000f4
:10202400838148000040800011408000800f5100ef
:10203400818f590028003e0054a8800065a88000c4
:1020440090a88000a1a8800018c0b3000001be00c1
:102054000400be0027fb07000000e000010035007b
:102064000044eb000804e0001b0032000040800044
:10207400114080005040880061408800200020000a
:10208400404088001400370070a9800081a98000b6
:102094003dfb07000001be0050408000614080000d
:1020a400020140008381480000408000114080000c
:1020b400800f5100818f590007003e00c542a800df
:1020c400004080001140800050408800614088003a
:1020d40020002000404088005ec8bf000004e000eb
:1020e4001a003a001000200040408800c422a900d1
:1020f40019003700c0562100104078000004e000a9
:1021040014003a001000200040408800c422a900b6
:1021140011003700000000000f003700000000002d
:102124000d003700000000000b0037000000000025
:10213400090037000000000007003700000000001d
:102144000500370000000000030037000000000015
:1021540001003700000000004f0478000080fa00fe
:10216400000006000000fa00889fbe00e0408000e6
:10217400e30f500031003200e30f500005003e0031
:10218400e10f500017003200e10f500021003e0023
:1021940007003700e50f50003e003200e50f500005
:1021a40030003900e60f500050003200590037006b
:1021b40090428000a142800002002000a347240036
:1021c4001dfa07000002be0002002500337c2c002b
:1021d40010c0b3007c04070010002000e040880019
:1021e4004c00370050168000680060000000e000da
:1021f40043003a0010c0b300070507006000b800b0
:1022040040aa880051aa880040002000e0408800cd
:102214004000370000aa800011aa80000002be001e
:102224000200200083242c0010c0b30066040700c1
:1022340030002000e040880036003700501680004f
:10224400680060000000e0002f003a006000b80061
:1022540040aa880051aa880060002000e04088005d
:102264002c00370098428000a9428000d0a9800049
:10227400e1a98000dffa07000802be000001be00e9
:1022840010c0b3005004070050002000e040880054
:102294002000370050168000640060000000e00059
:1022a4000d00320044aa800055aa8000a0aa800034
:1022b400b1aa800018c0b3000001be000400be0033
:1022c4008efa07000000e00001003d000044eb002e
:1022d4000804e0000e00320060002000e0408800a6
:1022e40010c0b30018e8b7000a00370010c0b300ec
:1022f400c904070070002000e04088000500370092
:102304000000000003003700000000000100370057
:10231400000000004f04be000080fa000000060028
:102324000200fa00000f78009e007800e140880067
:102334000080fa00000006000000fa00889fbe003a
:10234400f0408000e30f500031003200e30f5000f2
:1023540005003e00e10f500017003200e10f50006d
:1023640021003e0007003700e50f50003e00320018
:10237400e50f500030003900e60f50004c003200e9
:102384005500370090428000a142800002002000e6
:10239400a3472400a8f907000002be00020025009c
:1023a400337c2c0020c0b300070407001000200079
:1023b400f0408800480037009016800062006000fa
:1023c4000000e0003f003a0020c0b3009204070080
:1023d4006000b80060aa880071aa8800400020004c
:1023e400f04088003c00370000aa800011aa800059
:1023f4000002be000200200083242c0020c0b30091
:10240400f103070030002000f0408800320037005c
:1024140090168000620060000000e0002b003a008b
:102424006000b80060aa880071aa880060002000db
:10243400f04088002800370098428000a9428000bc
:10244400d0a98000e1a980006afa07000802be0052
:102454000001be0020c0b300db03070050002000d1
:10246400f04088001c00370064aa800075aa800030
:10247400c0aa8000d1aa800018c0b3000001be0029
:102484000400be001dfa07000000e00001003d004a
:102494000044eb000804e0000e003200600020005d
:1024a400f040880010c0b30019e8b7000a003700f4
:1024b40020c0b3005804070070002000f0408800da
:1024c4000500370000000000030037000000000092
:1024d40001003700000000004f04be000080fa0035
:1024e400000006000200fa00000f78009e00780049
:1024f400f14088000080fa00000006000000fa00a5
:10250400889fbe0000418000e30f5000310032007c
:10251400e30f500005003e00e10f500017003200a9
:10252400e10f500021003e0007003700e50f500086
:102534003e003200e50f500030003900e60f500035
:102544004c0032005500370090428000a1428000c8
:1025540002002000a347240037f907000002be0050
:1025640002002500337c2c0030c0b3009603070022
:1025740010002000004188004800370050168000f9
:10258400700060000000e0003f003a0030c0b3007b
:10259400210407006000b80080aa880091aa88007e
:1025a40040002000004188003c00370000aa800061
:1025b40011aa80000002be000200200083242c0027
:1025c40030c0b300800307003000200000418800c1
:1025d4003200370050168000700060000000e000f8
:1025e4002b003a006000b80080aa880091aa8800f5
:1025f40060002000004188002800370098428000d5
:10260400a9428000d0a98000e1a98000f9f907005f
:102614000802be000001be0030c0b3006a03070018
:1026240050002000004188001c00370084aa80006c
:1026340095aa8000e0aa8000f1aa800018c0b30027
:102644000001be000400be00acf907000000e00079
:1026540001003d000044eb000804e0000e003200dd
:10266400600020000041880010c0b3001ae8b700e1
:102674000a00370030c0b300e703070070002000f1
:102684000041880005003700000000000300370007
:102694000000000001003700000000004f04be00ed
:1026a4000080fa00000006000200fa00000f780023
:1026b4009e007800014188000080fa0000000600b6
:1026c4000000fa0050168000640060000000e00082
:1026d40008003a0022c8bf000004e00005003a00e8
:1026e40010c0b30022e8b70010c0b300000b07000d
:1026f4000a00370050168000640060000000e0000b
:102704000600320022c8bf00e14f500003003a0027
:102714002268ef0010c0b300380b07009016800049
:10272400610060000000e00008003a0023c8bf0018
:102734000004e00005003a0010c0b30023e8b7002d
:1027440020c0b300ea0a07000a0037009016800090
:10275400610060000000e0000600320023c8bf00f2
:10276400e14f500003003a002368ef0020c0b3009b
:10277400220b0700850b07000080fa00000006000a
:102784000000fa00881f78004cc8bf000004e00075
:102794005a003200a4aa8000b5aa800040aa800092
:1027a40051aa800018c0b3000001be000400be009e
:1027b40052f907000000e00001003c000044eb0077
:1027c4000804e0001e003200c522a900a116800002
:1027d400000420000080600000f0a7000000ea0070
:1027e4000000e9004f00de00004078000080fb009c
:1027f400610060004600dd00a2168000f1fb2f009e
:102804008100610001007000a0168800a1168000fc
:1028140000042000008060000000e00090003a0006
:1028240040aa800051aa80000200200003f823007f
:1028340082f8070040aa880051aa8800880037005f
:10284400a4aa8000b5aa800040aa800051aa8000f2
:1028540018c0b3000001be000400be0025f9070043
:102864000000e000010035000044eb000804e00033
:102874001e003200c522a800a1168000000420001a
:102884000080600000f0a7000000ea000000e900fa
:102894004f00de00004078000080fb006100600013
:1028a4004600dd00a2168000f1fb2f0081006100cc
:1028b40001007000a0168800a1168000000420000a
:1028c400008060000000e00065003a0040aa80003b
:1028d40051aa80000200200003f8230056f80700e4
:1028e40040aa880051aa88005d0037008040eb00b0
:1028f4000040eb006406070059003700a4aa8000da
:10290400b5aa800040aa800051aa800018c0b30074
:102914000001be000400be00f8f807000000e0005b
:1029240001003c000044eb000804e0001e003200fb
:10293400c522a900a11680000004200000806000c8
:1029440000f0a7000000ea000000e9004f00de00ec
:10295400004078000080fb00610060004600dd005c
:10296400a2168000f1fb2f008100610001007000bd
:10297400a0168800a11680000004200000806000da
:102984000000e00036003a0040aa800051aa80000e
:102994000200200003f8230028f8070040aa88005a
:1029a40051aa88002e003700a4aa8000b5aa80008e
:1029b40040aa800051aa800018c0b3000001be00e4
:1029c4000400be00cbf807000000e0000100350061
:1029d4000044eb000804e0001e003200c522a800f9
:1029e400a1168000000420000080600000f0a70011
:1029f4000000ea000000e9004f00de00004078001b
:102a04000080fb00610060004600dd00a21680002b
:102a1400f1fb2f008100610001007000a016880006
:102a2400a116800000042000008060000000e00087
:102a34000b003a0040aa800051aa80000200200046
:102a440003f82300fcf7070040aa880051aa880075
:102a5400030037008040eb000040eb000a0607004b
:102a64004f0478000080fa00000006000000fa001d
:102a7400881f78004cc8bf000004e0005b003200ef
:102a8400c4aa8000d5aa800060aa800071aa800030
:102a940018c0b3000001be000400be0097f8070090
:102aa4000000e00001003c000044eb000804e000ea
:102ab4001c003200cca2a900a016800068006000af
:102ac40000f0a7000000ea000000e9004f00de006b
:102ad400004078000080fb00610060004300dd00de
:102ae400a216800071ff2f008100610001007000b8
:102af400a0168800a0168000680060000000e000b6
:102b040034003a0060aa800071aa8000020020000c
:102b140003f82300c9f7070060aa880071aa880097
:102b24002c003700c4aa8000d5aa800060aa8000c7
:102b340071aa800018c0b3000001be000400be00ea
:102b44006cf807000000e000010035000044eb00d1
:102b54000804e0001c003200cca2a800a0168000eb
:102b64006800600000f0a7000000ea000000e9002f
:102b74004f00de00004078000080fb006100600030
:102b84004300dd00a216800071ff2f008100610068
:102b940001007000a0168800a01680006800600084
:102ba4000000e0000b003a0060aa800071aa8000d7
:102bb4000200200003f823009ff7070060aa8800a2
:102bc40071aa8800030037008040eb0010c0b300f6
:102bd400ad05070070408000814080006100400026
:102be400e080480070408800814088004f047800ed
:102bf4000080fa00000006000000fa00881f780038
:102c04004cc8bf000004e00059003200e4aa800070
:102c1400f5aa800080aa800091aa800018c0b300a1
:102c24000001be000400be0034f807000000e0000c
:102c340001003c000044eb000804e0001e003200e8
:102c4400cde2a9006116800000002400008060002d
:102c540000f0a7000000ea000000e9004f00de00d9
:102c6400004078000080fb00610060004e00dd0041
:102c740062168000f1ff2b008100610001007000ea
:102c84006016880061168000000024000080600047
:102c94000000e00036003a0080aa800091aa80007b
:102ca4000200200003f8230064f7070080aa8800cc
:102cb40091aa88002e003700e4aa8000f5aa8000bb
:102cc40080aa800091aa800018c0b3000001be0051
:102cd4000400be0007f807000000e0000100350012
:102ce4000044eb000804e0001e003200cde2a8001e
:102cf40061168000000024000080600000f0a7003e
:102d04000000ea000000e9004f00de000040780007
:102d14000080fb00610060004e00dd006216800050
:102d2400f1ff2b0081006100010070006016880033
:102d34006116800000002400008060000000e000b4
:102d44000b003a0080aa800091aa800002002000b3
:102d540003f8230038f7070080aa880091aa8800a6
:102d6400030037008040eb0020c0b3004605070095
:102d74004f0478000080fa00000006000000fa000a
:102d8400004080001140800061004000e080480065
:102d94000040880011408800304380000000e800b3
:102da400304388000080fa00000006001e00fa008c
:102db400889fbe0000408000114080004808de006b
:102dc40000407800204f98000040800011408000af
:102dd4004008de0000407800304f9800004080003a
:102de400114080004809dd004800de000000710049
:102df400c808de0000407800404f98000040800082
:102e04001140800000407800504f980050a9800085
:102e140061a980006a0247000001be004100200051
:102e2400040078003d10070050a8800061a88000cd
:102e34006a0247000001be008100200004007800ff
:102e44003610070040aa800051aa80006a02470099
:102e54000001be00c1002000040078002f1007000c
:102e64006a004700000178000101200040062000ac
:102e7400e3070700fb0047007a0047002400200016
:102e8400810178000001eb008000780000c5b300e8
:102e9400bb0b07004e5890008080fb003e5890000a
:102ea4000081fb00f0032000000061004800dd0009
:102eb4008080400060a02f0000804000cf80de00b2
:102ec400ccf7070062462f0033e8230021f80700ff
:102ed40050a8880061a8880025c8bf008080fb0036
:102ee4008100ea00cf08de00814078000040e8005d
:102ef40025e8b7000104e0005e0032002568ef0019
:102f0400800f070030a8880041a8880010c0b300d3
:102f1400004f780032a8800043a880001207980070
:102f24002307980018c0b3006011b8001e00900079
:102f3400ae0090006ff707000000e00001003500cc
:102f44000044eb000804e0000300320000c0eb0082
:102f5400004f78000200370010c0b300004f780023
:102f640018c0b3006011b8001e009000ae009000bd
:102f740062f707000000e00001003c000044eb00a1
:102f84000804e000080032001e009000ae0090002b
:102f94000001be00a9f60700420a2700d3f9230066
:102fa40003f70700080037001e009000ae009000f1
:102fb40001f0a2000001be00a0f60700420a2700ab
:102fc400d3f92300faf6070016f807000004be0040
:102fd4001e00fb00cf80de0086f707000001be0064
:102fe4000800be00dbf7070030079800410798008f
:102ff40020408000314080003e019000ce019000ce
:10300400d4f7070030a9880041a9880018c0b3008c
:10301400a2702d0033c223003e009000ce00900029
:1030240036f707000000e00001003d000044eb001b
:103034000804e0000f00320058a9800069a980004c
:1030440030a9800041a9800002002000a347240089
:10305400c0f7070002002000831c2400d4f60700f8
:103064000001be000800be0074f6070050a98800e5
:1030740061a9880024c8bf008080fb008100ea00a9
:10308400cf08de00814078000040e80024e8b70063
:103094000104e00007003200a0408000b14080003d
:1030a4006011b80065f60700a0408800b1408800b0
:1030b4002468ef004f04be000080fa000000060000
:1030c4000000fa001bc8bf000004e00003003a003f
:1030d40010c0b3005ee8b700010037005e68ef007f
:1030e4000080fa00000006000000fa00e7fa07007a
:1030f4000080fa00000006000800fa00889fbe0065
:10310400e0532100104078000080fb008000eb00b9
:103114000001be0000a62e0001002000e6f6070014
:1031240034f70700008fbe006000b8002007980045
:10313400310798004cc8bf000004e00052003a0078
:10314400d0a98000e1a980002af707000004be008e
:10315400d2cc2c00c3e423001e00be007df7070080
:1031640002002000a347240091f607000001be00de
:103174000800be008ef6070020079800310798006b
:10318400d0a98000e1a980000000400081804800af
:1031940018f707000004be00d2cc2c00c3e42300bf
:1031a4001e00be006bf7070002002000a3472400a6
:1031b4007ff607000001be000800be007cf6070091
:1031c4000002be0090428000a142800018c0b300fb
:1031d4000001be000400be00c6f607000000e000c7
:1031e400010035000044eb000804e0001100320047
:1031f400d0a98000e1a9800000004000818048003f
:10320400fcf607000004be00d2cc2c00c3e423006b
:103214001e00be004ff7070002002000a347240051
:1032240063f607000001be000800be0060f6070058
:103234000200370090428000a142800000aa88006a
:1032440011aa8800d2cc2c00c3e423001e00be00c7
:1032540040f7070010a9880021a988000200200077
:10326400a34724001e00be003af70700d2cc2c006e
:10327400c3e4230037f70700c3f6070040ab880018
:1032840051ab880041003700d0a98000e1a980003b
:103294000000400081804800d6f607000004be000c
:1032a400d2cc2c00c3e423001e00be0029f7070083
:1032b40002002000a34724003df607000001be00e1
:1032c4000800be003af607000002be0090428000eb
:1032d400a142800018c0b3000001be000400be007b
:1032e40084f607000000e000010035000044eb0014
:1032f4000804e00011003200d0a98000e1a9800098
:103304000000400081804800baf607000004be00b7
:10331400d2cc2c00c3e423001e00be000df707002e
:1033240002002000a347240021f607000001be008c
:103334000800be001ef6070002003700904280001d
:10334400a142800000aa880011aa8800d2cc2c00d7
:10335400c3e423001e00be00fef6070010a9880087
:1033640021a9880002002000a34724001e00be00fb
:10337400f8f60700d2cc2c00c3e42300f5f60700ce
:1033840081f6070040ab880051ab8800a299290060
:1033940093e923001e00be00eef60700f0a88800a3
:1033a40001a988000200200003f023001e00be00d3
:1033b400e8f6070070a9880081a988004f04be00c0
:1033c4000080fa00000006000a00fa00004f7800ae
:1033d40012079800230798003407980045079800bf
:1033e4001e80fb00e30f500024003200e30f500066
:1033f40005003c00e10f500008003200e20f5000cd
:103404001200320041003700e40f50002700320060
:10341400e50f5000310032003c0037003e019000bf
:10342400ce0190000040eb00a20007001e019000b6
:10343400ae019000a2aa8800b3aa880011c0b3000c
:103444000040eb0090030700300037003e0190007d
:10345400ce01900010c0b300960007001e0190003a
:10346400ae019000c2aa8800d3aa880011c0b3009c
:1034740010c0b30084030700240037003e0190000d
:10348400ce01900020c0b3008a0007001e01900006
:10349400ae019000e2aa8800f3aa880011c0b3002c
:1034a40020c0b30078030700180037003e019000e5
:1034b400ce01900030c0b3007e0007001e019000d2
:1034c400ae01900002ab880013ab880011c0b300ba
:1034d40030c0b3006c0307000c0037003e019000bd
:1034e400ce01900040c0b300720007001e0190009e
:1034f400ae01900022ab880033ab880011c0b3004a
:1035040040c0b30060030700000000000080fa0020
:10351400000006000400fa00004f7800110798002c
:103524001e80fb00e30f50001e003200e30f50002a
:1035340005003c00e10f500008003200e20f50008b
:103544000f00320032003700e40f50001e0032003a
:10355400e50f5000250032002d00370011c0b300e4
:103564000040eb00480307001e0090008000eb00c1
:1035740023f60700a0aa8800b1aa88002400370017
:1035840011c0b30010c0b3003f0307001e00900039
:103594008000eb001af60700c0aa8800d1aa8800b0
:1035a4001b00370011c0b30020c0b300360307006e
:1035b4001e0090008000eb0011f60700e0aa8800ce
:1035c400f1aa88001200370011c0b30030c0b30064
:1035d4002d0307001e0090008000eb0008f6070092
:1035e40000ab880011ab88000900370011c0b3009c
:1035f40040c0b300240307001e0090008000eb00cd
:10360400fff5070020ab880031ab88000000000004
:103614000080fa00000006000200fa00004f780063
:103624001e80fb00e30f500014003200e30f500033
:1036340005003c00e10f500008003200e20f50008a
:103644000a00320019003700e40f50000f00320066
:10365400e50f500011003200140037008040eb00e9
:103664000040eb0008030700100037008040eb0027
:1036740010c0b300040307000c0037008040eb00c7
:1036840020c0b30000030700080037008040eb00af
:1036940030c0b300fc020700040037008040eb0098
:1036a40040c0b300f8020700000000000080fa00e8
:1036b400000006000600fa00881f7800004f78001a
:1036c40012079800230798001e80fb00e20f5000a9
:1036d400ea003200e20f500005003c000000e00068
:1036e40008003200e10f500075003200300237004c
:1036f400e30f500050013200e40f5000bd013200ce
:103704002b02370021088000f0fc2f0000806000ad
:10371400200888001e019000ae0190000068290076
:1037240081c1240022f5070018c0b30002f02f0065
:10373400f377240071f507000000e00001003c006d
:103744000044eb000804e00054003200210880002b
:10375400f0fc2f00008060000040a00020088800da
:103764001e019000ae0190000068290081c1240070
:103774000ff5070002002000031024000cf50700d9
:1037840018c0b30002f02f00f37724005bf50700a4
:103794000000e00001003c000044eb000804e000ed
:1037a4003200320021088000f0fc2f00008060000d
:1037b4000050a000200888001e019000ae01900077
:1037c4000068290081c12400f9f4070002002000e8
:1037d40003282400f6f4070018c0b30002f02f00f9
:1037e400f377240045f507000000e00001003c00e9
:1037f4000044eb000804e0001000320021088000bf
:103804000003200001007000200888001e019000c1
:10381400ae0190000068290081c12400e4f407008f
:103824000200200003382400e1f4070035f5070006
:103834000000780010088800dd0137001e019000a8
:10384400ae0190000068290081c12400d8f407006b
:103854000200200003282400d5f4070029f50700fe
:103864000000780010088800d10137001e01900084
:10387400ae0190000068290081c12400ccf4070047
:103884000200200003102400c9f407001df50700fe
:103894000000780010088800c50137001e01900060
:1038a400ae0190000068290081c12400c0f4070023
:1038b40014f507000000780010088800bc013700e8
:1038c40081088000f0fc2f000080600080088800e0
:1038d4001e019000ae0190000068290081c12400ff
:1038e400b3f4070018c0b30002f02f00f3772400ec
:1038f40002f507000000e00001003c000044eb007a
:103904000804e0005400320081088000f0fc2f001d
:10391400008060000040a000800888001e01900024
:10392400ae0190000068290081c12400a0f40700c2
:1039340002002000031024009df4070018c0b30007
:1039440002f02f00f3772400ecf407000000e000fd
:1039540001003c000044eb000804e00032003200a7
:1039640081088000f0fc2f00008060000050a0005f
:10397400800888001e019000ae01900000682900b4
:1039840081c124008af407000200200003282400d7
:1039940087f4070018c0b30002f02f00f377240067
:1039a400d6f407000000e00001003c000044eb00f6
:1039b4000804e000100032008108800000032000a9
:1039c40001007000800888001e019000ae01900084
:1039d4000068290081c1240075f40700020020005a
:1039e4000338240072f40700c6f4070000007800ce
:1039f400600888006e0137001e019000ae0190003f
:103a04000068290081c1240069f407000200200035
:103a14000328240066f40700baf4070000007800c5
:103a240060088800620137001e019000ae0190001a
:103a34000068290081c124005df407000200200011
:103a4400031024005af40700aef4070000007800c5
:103a540060088800560137001e019000ae019000f6
:103a64000068290081c1240051f40700a5f407006f
:103a740000007800600888004d013700910880003c
:103a8400f0fc2f0000806000900888001e01900068
:103a9400ae0190000068290081c1240044f40700ad
:103aa40018c0b30002f02f00f377240093f407004a
:103ab4000000e00001003c000044eb000804e000ca
:103ac4005400320091088000f0fc2f000080600058
:103ad4000040a000900888001e019000ae019000f4
:103ae4000068290081c1240031f40700020020008d
:103af400031024002ef4070018c0b30002f02f00b6
:103b0400f37724007df407000000e00001003c008e
:103b14000044eb000804e000320032009108800009
:103b2400f0fc2f00008060000050a0009008880086
:103b34001e019000ae0190000068290081c124009c
:103b44001bf40700020020000328240018f40700d7
:103b540018c0b30002f02f00f377240067f40700c5
:103b64000000e00001003c000044eb000804e00019
:103b74001000320091088000000320000100700052
:103b8400900888001e019000ae0190000068290092
:103b940081c1240006f40700020020000338240039
:103ba40003f4070057f40700000078007008880049
:103bb400ff0037001e019000ae019000006829004c
:103bc40081c12400faf30700020020000328240026
:103bd400f7f307004bf40700000078007008880032
:103be400f30037001e019000ae0190000068290028
:103bf40081c12400eef3070002002000031024001a
:103c0400ebf307003ff40700000078007008880019
:103c1400e70037001e019000ae0190000068290003
:103c240081c12400e2f3070036f4070000007800a5
:103c340070088800de003700f1088000f0fc2f00d7
:103c440000806000f00888001e019000ae01900022
:103c54000068290081c12400d5f3070018c0b3000f
:103c640002f02f00f377240024f407000000e000a2
:103c740001003c000044eb000804e0005400320062
:103c8400f1088000f0fc2f00008060000040a000dc
:103c9400f00888001e019000ae0190000068290021
:103ca40081c12400c2f30700020020000310240095
:103cb400bff3070018c0b30002f02f00f37724000d
:103cc4000ef407000000e00001003c000044eb009b
:103cd4000804e00032003200f1088000f0fc2f00fc
:103ce400008060000050a000f00888001e019000d1
:103cf400ae0190000068290081c12400acf30700e4
:103d04000200200003282400a9f3070018c0b30010
:103d140002f02f00f3772400f8f307000000e0001e
:103d240001003c000044eb000804e00010003200f5
:103d3400f10880000003200001007000f0088800f2
:103d44001e019000ae0190000068290081c124008a
:103d540097f30700020020000338240094f30700bf
:103d6400e8f3070000007800d008880090003700ce
:103d74001e019000ae0190000068290081c124005a
:103d84008bf30700020020000328240088f30700b7
:103d9400dcf3070000007800d008880084003700b6
:103da4001e019000ae0190000068290081c124002a
:103db4007ff3070002002000031024007cf30700b7
:103dc400d0f3070000007800d0088800780037009e
:103dd4001e019000ae0190000068290081c12400fa
:103de40073f30700c7f3070000007800d0088800c9
:103df4006f00370001098000f0fc2f000080600094
:103e0400000988001e019000ae019000006829009e
:103e140081c1240066f3070018c0b30002f02f002c
:103e2400f3772400b5f307000000e00001003c0034
:103e34000044eb000804e000540032000109800053
:103e4400f0fc2f00008060000040a0000009880002
:103e54001e019000ae0190000068290081c1240079
:103e640053f30700020020000310240050f307005e
:103e740018c0b30002f02f00f37724009ff307006b
:103e84000000e00001003c000044eb000804e000f6
:103e94003200320001098000f0fc2f000080600035
:103ea4000050a000000988001e019000ae0190009f
:103eb4000068290081c124003df3070002002000ae
:103ec400032824003af3070018c0b30002f02f00bf
:103ed400f377240089f307000000e00001003c00b0
:103ee4000044eb000804e0001000320001098000e7
:103ef4000003200001007000000988001e019000ea
:103f0400ae0190000068290081c1240028f3070055
:103f1400020020000338240025f3070079f307008a
:103f240000007800e0088800210037001e0190009e
:103f3400ae0190000068290081c124001cf3070031
:103f4400020020000328240019f307006df3070082
:103f540000007800e0088800150037001e0190007a
:103f6400ae0190000068290081c1240010f307000d
:103f740002002000031024000df3070061f3070082
:103f840000007800e0088800090037001e01900056
:103f9400ae0190000068290081c1240004f30700e9
:103fa40058f3070000007800e008880000000000d3
:103fb4004f0478000080fa00000006000400fa00b4
:103fc400004f780011479800224798001e80fb009c
:103fd400e20f500036003200e20f500005003c00b2
:103fe4000000e00008003200e10f50001b00320026
:103ff4006c003700e30f500041003200e40f500022
:1040040054003200670037008460a9001e4090000d
:104014000080fb00610060004300dd00a20480001a
:1040240071ff2f008100610001007000a00488006e
:104034002e409000674060000080fb006700600035
:104044004c00dd0022058000f1ff280081006100a2
:1040540001007000200588005200370084e0a900a8
:104064001e4090000080fb00610060004700dd00fe
:10407400a2048000f1f72f008100610001007000ac
:10408400a00488002e409000674060000080fb0080
:10409400670060004c00dd0032058000f1ff28005d
:1040a4008100610001007000300588003d00370088
:1040b4008500a9001e4090000080fb0061006000a4
:1040c4004800dd00a2048000f1ef2f0081006100b0
:1040d40001007000a00488002e409000674060003a
:1040e4000080fb00670060004205800081ff2f0014
:1040f400810061000100700040058800290037003c
:104104008760a9001e4090000080fb0061006000f1
:104114004b00dd00b2048000f17f2f0081006100bc
:1041240001007000b00488002e40900067406000d9
:104134000080fb00670060004c00dd008205800009
:10414400f1ff2800810061000100700080058800f3
:10415400140037008780a9001e4090000080fb00f7
:10416400610060004c00dd00b2048000f1ff2e000d
:104174008100610001007000b00488002e409000ae
:10418400674060000080fb006700600092058000cb
:1041940081ff2f00810061000100700090058800fc
:1041a400000000000080fa00000006000400fa008d
:1041b400004f7800110798001e407800e44f50002b
:1041c40009003e001e0090000000e00006003200de
:1041d4001e80fb0080004000e05b21000080400066
:1041e4009e009000010878000080fa00000006009c
:1041f4000800fa0040479800310798003e009000fc
:104204008000eb00fef2070002002000a347240018
:1042140067f207000001be000000200001f823003f
:1042240063f20700008fbe001e01be004e409000e6
:1042340020fd07000080fa00000006000800fa00d4
:1042440040479800310798003e0090008000eb0042
:10425400ebf20700024022004397240054f20700c7
:104264000001be000000200001f8230050f2070006
:10427400008fbe001e01be004e4090000dfd0700e1
:104284000080fa00000006000200fa00004f7800e7
:10429400114798001e80fb00e20f50001e00320000
:1042a400e20f500005003c000000e000080032006e
:1042b400e10f50000f00320032003700e30f5000ce
:1042c4001e003200e40f5000250032002d0037009c
:1042d4001e4090000080fb004f00dd00220880009b
:1042e400f1ff2700810061000100700020088800b0
:1042f400240037001e4090000080fb004f00dd00ca
:1043040082088000f1ff2700810061000100700035
:10431400800888001b0037001e4090000080fb00ce
:104324004f00dd0092088000f1ff2700810061004a
:104334000100700090088800120037001e409000b1
:104344000080fb004f00dd00f2088000f1ff270031
:104354008100610001007000f00888000900370046
:104364001e4090000080fb004f00dd000209800029
:10437400f1ff27008100610001007000000988003e
:10438400000000000080fa00000006000a00fa00a5
:10439400004f78001207980023079800310798000f
:1043a400044f98008040eb001e407800b6ff0700e1
:1043b4001e019000ae0190001e407800bdfc070075
:1043c400be0090001e40780078ff07008e489000e1
:1043d4001e407800acff07000080fa0000000600d1
:1043e4000c00fa00004f7800120798002307980089
:1043f40031079800044f9800154f9800264f9800f5
:104404008040eb001e4078009fff07001e019000d3
:10441400ae0190001e407800a6fc0700be0090008c
:104424001e40780061ff07001e4990008e489000ee
:104434001e407800e1fe0700ae4890001e40780060
:1044440091ff07000080fa00000006000a00fa004d
:104454002007980031079800420798000040eb00bd
:10446400004f78000000eb00100798002e00900029
:104474004800de00004078001e4f68002e009000c7
:10448400004078001e4f68003e0090004800de00a7
:10449400004078001e4f68003e0090000040780005
:1044a4001e4f68000000eb0010079800080037005a
:1044b400ce0090001e009000008040001040780064
:1044c4001e4f68001e0090000000e80010079800ce
:1044d4009e0090003e009000808f5000f4ff390051
:1044e4001e4078000080fa00000006000200fa0076
:1044f400004f780056c8bf000080fb00e30f500057
:1045040023003200e30f500007003c00e10f50008d
:1045140012003200e10f500016003c000000e000e1
:10452400080032004e003700e50f50003100320021
:10453400e50f50001c003500e60f50003c0032002f
:10454400470037001e407800e24f400047003a0021
:1045540010c0b30056e8b700470037001e80fb00c8
:104564004800dd00c042880020c0b30056e8b70010
:10457400410037009e80fb00c04280000080400064
:10458400c042880030c0b30056e8b7003a00370094
:104594001e80fb004800dd00d042880040c0b3000c
:1045a40056e8b700340037009e80fb00d0428000fc
:1045b40000804000d0428800d142800000102000da
:1045c400808f5000020036005668ef002a00370042
:1045d400d04280000000e00003003a0060c0b30055
:1045e40056e8b7002400370050c0b30056e8b700bf
:1045f40021003700e0428000413821001e4178004c
:1046040082707800e04280000000e800e042880008
:10461400e1428000d0428000808f500015003a00b3
:104624005c28ef0060c0b30056e8b7001200370002
:10463400d1428000c04280004238210083ff07003d
:104644009e4f500004003a00d1428000c0428000d6
:1046540042382100110007005668ef0006003700b9
:104664005668ef000000000003003700000000005f
:1046740001003700000000000080fa00000006007e
:104684000400fa00000f7800214798009580a800e4
:104694000000eb000080fa00000006000c00fa00a5
:1046a4003007980041079800520798000040eb003b
:1046b400004f78000000eb00100798000040eb006a
:1046c400404798003e009000f50f5000160132005c
:1046d400f50f500014003e00e50f50006200320058
:1046e400e50f500007003e00e30f50003200320097
:1046f400e30f5000b6013e00e10f50001d003200f0
:10470400ab013700e70f5000b3003200e70f500051
:1047140083003900e80f5000dd003200f40f500030
:10472400e9003200a2013700f90f50004d013200b8
:10473400f90f500005003e00f70f5000260132002b
:10474400f70f500034013e000d013700fb0f5000fd
:104754005c013200fb0f5000560139009107200024
:10476400810f500067013200e10f40008d013200db
:104774008f0137000040eb00004f78005e0090008e
:10478400104078000004e0000300320010c0b300c1
:104794005ee8b700010037005e68ef00e1852000a5
:1047a4009140780040482100014878001000200022
:1047b40010079800870137005e0090009040780051
:1047c400d0562100014878005e009000640040004b
:1047d400104078000081fb008001eb005e00900037
:1047e40063004000104078000082fb008002eb0070
:1047f4004828dd00c820de00810070004820dd006c
:1048040002014000838148005e0090000080e800bf
:10481400104078000080fb008000eb00c000dd0049
:104824000000200002014000838148005e009000e7
:104834000000e800104078000080fb008000eb00de
:10484400c800dd0000002000020040008380480012
:1048540070ab880081ab8800c056210011c0b30042
:10486400014878005b0137000040eb00004f7800fe
:104874005e00900063004000104078000081fb005f
:104884008001eb005e0090000080e800104078009a
:104894000082fb008002eb004828dd00c820de0017
:1048a400810070004820dd0002014000838148003f
:1048b4005e0090000000e800104078000080fb00db
:1048c4008000eb00c000dd00000020000201400079
:1048d400838148005e009000104078000080fb0057
:1048e4008000eb00c800dd00000020000200400052
:1048f4008380480090a98800a1a9880090a980001d
:10490400a1a980000001be008000eb004048210006
:104914009b09070040002000100798002d01370074
:104924000040eb00004f78005e0090006300400000
:10493400104078000081fb008001eb005e009000d5
:104944000080e800104078000082fb008002eb0049
:104954004828dd00c820de00810070004820dd000a
:1049640002014000838148005e0090000000e800de
:10497400104078000080fb008000eb00c000dd00e8
:104984000000200002014000838148005e00900086
:10499400104078000080fb008000eb00c800dd00c0
:1049a400000020000200400083804800b0a9880075
:1049b400c1a98800b0a98000c1a980000001be007f
:1049c4008000eb00404821006d09070040002000f2
:1049d40010079800ff0037000040eb00004f7800fc
:1049e4005e00900063004000104078000081fb00ee
:1049f4008001eb005e0090000080e8001040780029
:104a04000082fb008002eb004828dd00c820de00a5
:104a1400810070004820dd000201400083814800cd
:104a24005e0090000000e800104078000080fb0069
:104a34008000eb00c000dd00000020000201400007
:104a4400838148005e009000104078000080fb00e5
:104a54008000eb00c800dd000000200002004000e0
:104a640083804800d0a98800e1a98800d0a98000eb
:104a7400e1a980000001be008000eb004048210055
:104a84003f0907004000200010079800d1003700bc
:104a94000040eb00004f78005e00900090407800ea
:104aa400e053210001487800e05321009040780051
:104ab40040482100014878008ff9070010002000c9
:104ac40010079800c30037000040eb00004f780047
:104ad4008000eb005e009000f808070000aa880040
:104ae40011aa880000aa800011aa80000001be005b
:104af4008000eb00404821000809070000aa80005c
:104b040011aa8000020020000315240011f10700ff
:104b14000001be0020c0b300e6fa070040002000f8
:104b240010079800ab0037000040eb00004f7800fe
:104b34008000eb005e009000e00807000200200007
:104b4400a347240003f10700f0a8880001a9880006
:104b5400f0a8800001a9800002002000a3472400df
:104b640013f007000001be008000eb004048210064
:104b7400ea0807004000200010079800950037005d
:104b84000040eb00004f78008000eb005e009000d6
:104b9400ca08070002002000a3472400edf0070024
:104ba40070a9880081a9880070a9800081a980006b
:104bb40002002000a3472400fdef07000001be000f
:104bc4008000eb0040482100d4080700400020008a
:104bd400100798007f0037000040eb00004f78007a
:104be4008000eb005e009000b4080700d0a88800a5
:104bf400e1a88800d0a88000e1a880000001be00e0
:104c04008000eb0040482100c40807004000200059
:104c1400100798006f0037000040eb00004f780049
:104c24008000eb005e009000a40807000200200052
:104c3400832c2400c7f00700b0a88800c1a888000e
:104c4400b0a88000c1a880000001be008000eb0075
:104c540040482100b10807004000200010079800d8
:104c64005c0037000040eb00004f78005e009000cd
:104c7400104078000004e00004003200405021009d
:104c840011c0b300014878000300370040502100f0
:104c94008040eb00014878004050210090407800ab
:104ca40040482100014878001000200010079800b7
:104cb4004800370010c0b300004f7800f3f307003a
:104cc400440037000040eb00004f78008000eb0008
:104cd4005e0090007908070090a88800a1a88800c9
:104ce40090a88000a1a880000001be008000eb0015
:104cf4004048210089080700400020001007980060
:104d04003400370010c0b300004f78005e009000fc
:104d1400104078000081fb008001eb005e009000f1
:104d24000000e800104078000082fb008002eb00e5
:104d34004828dd00c820de00810070004820dd0026
:104d440002014000838148005e0090000080e8007a
:104d5400104078000080fb008000eb00c000dd0004
:104d64000000200002014000838148005e009000a2
:104d740063004000104078000080fb008000eb00de
:104d8400c800dd00000020000200400083804800cd
:104d940000408800114088000000eb0010079800d4
:104da4000c00370010c0b300004f78000900370032
:104db40010c0b300004f78001000200010079800c6
:104dc400404821008040eb00014878000100370092
:104dd400000000001e4078000004e00004003a00d7
:104de400424821009e0090003e009000040007000d
:104df4000040eb00004f78000080fa00000006003d
:104e04000c00fa00889fbe008a1f780030079800c3
:104e140041079800520798000f0478000f007800ab
:104e2400800478004e009000660040008000780006
:104e34008100e900110798000000e8000000e80084
:104e44000000d100800040000f00780081874700f7
:104e54000000e8000000d100000040002007980096
:104e64002e009000e1cfb300014878003e0090008e
:104e74004800de00804078002e0090001140980029
:104e84003e009000804078002e0090002140980061
:104e94004e0090004800de00804078002e00900014
:104ea400314098004e009000804078002e00900021
:104eb400414098000000eb00000f78000900370023
:104ec4009e007800658040009e0078005e0190009e
:104ed4008100410011417800ae009000827078009a
:104ee4001e0fe8009e0078004e009000808f500056
:104ef400f3ff39004e009000650540005e0190000c
:104f0400ce0090003e00900050fd0700ae009000df
:104f140080707d004e009000e60040002e0090005e
:104f24000600070089077800880778004f05780095
:104f34004f04be000080fa00000006000600fa00dc
:104f4400100798002107980065060700ae0090003e
:104f5400810f50000d0036000000eb00000f7800b8
:104f6400060037001e0078009e009000008040007c
:104f740010407800170607001e0fe8009e00780016
:104f84002e009000808f5000f6ff39000080fa0058
:104f9400000006000200fa000e0178008000eb0019
:104fa4000019200096ff07000080fa0000000600a8
:104fb4000400fa00100798001e00900005f2070094
:104fc400000f78009e0090001e0078000101780018
:104fd40080007800e0ee2e0089ff07000080fa00d0
:104fe400000006000600fa00004f78001107980040
:104ff400424798001e407800e24f500013003e00e4
:105004001e80fb000000e9001e0190007200b90040
:1050140080007800a0582100008040000208780039
:105024001e80fb000000e9007200b90080007800d7
:105034002059210000804000ce40900001487800b3
:1050440072c8bf000040e80072e8b7000080fa00b0
:10505400000006000800fa00004f780011079800cd
:1050640042479800330798001e407800e24f5000f2
:105074001e003e001e80fb000000e9007200b90023
:1050840080007800a0582100008040009e0090001d
:10509400010878001e80fb000000e9007200b900de
:1050a400800078002059210000804000ce4090000c
:1050b400014878003e0090000000e0000800320043
:1050c4001e80fb000000e9007200b9008000780037
:1050d400e058210000804000be00900001087800e4
:1050e40072c8bf000040e80072e8b7000080fa0010
:1050f400000006000400fa00004f78001107980031
:105104001e407800e24f50000b003e001e0090004d
:105114000000e000080032001e80fb000000e900ef
:105124007200b90080007800e0582100008040003f
:105134009e009000010878000080fa00000006003c
:105144000800fa00100798004147980032079800b9
:1051540071c8bf000080fb006c00b90080007800bb
:10516400605a210000804000ce4090000148780041
:105174000040eb00004f78000e00370071c8bf00fc
:105184000080fb009e81fb009e80fb001e019000be
:1051940081004100114178006c00b90000007800e2
:1051a40083004000605a21000080400012409800b3
:1051b4001e4fe80071c8bf000080fb006c00b900fe
:1051c40080007800605a2100008040001040780080
:1051d4009e4f5000e9ff3e003e0090000000e000ba
:1051e4000800320071c8bf000080fb006c00b900e9
:1051f40080007800005b210000804000be00900029
:105204000108780071c8bf000040e80071e8b700e9
:105214000080fa00000006000600fa00004f780043
:1052240011079800220798001e407800e24f5000b2
:1052340013003e001e80fb000000e9007200b9006c
:1052440080007800c0582100008040009e0090003b
:10525400010878002e0090000000e00008003200f1
:105264001e80fb000000e9007200b9008000780095
:105274000059210000804000ae0090000108780031
:105284000080fa00000006000200fa000040eb0073
:10529400004f7800050037001e80fb00a157210055
:1052a4000041eb00827078001e4fe8001e40780039
:1052b400e74f5000f8ff36007068ef000080fa00f6
:1052c400000006000200fa00004f780070c8bf001a
:1052d4008080fb00a25721009e41780003f17800f2
:1052e4000040e80070e8b7000080fa000000060003
:1052f4000200fa00004f78001e80fb000000e90065
:105304007200b900800078008058210000804000bd
:1053140011c0b300014878000040800011408000b3
:10532400000178001e80fb000000e9007200b90053
:10533400000078008080e8002058210000804000b0
:10534400100078002003b000800f51000d003e00d3
:105354001e80fb000000e9007200b9000000780024
:105364008080e8002058210000804000100178006f
:10537400004080001140800000007800800f510040
:105384001c0036001e80fb000000e9001100200014
:105394000008dd0080007800a04380000100700058
:1053a400a04388001e80fb008001e90000408000cb
:1053b40011408000000178007218b9008000780064
:1053c4002058210000804000020878001e80fb0065
:1053d4008001e90000408000114080000001780055
:1053e4007218b90080007800405821000080400005
:1053f400020878000080fa00000006000200fa00ab
:10540400004f7800004080001140800000007800c8
:105414007e0140001e80fb000000e9007200b9001c
:10542400800078002058210000804000100078009f
:10543400c02bb000800f51000d003e001e80fb0009
:105444000000e9007200b900000078008080e800e4
:1054540020582100008040001001780000408000a6
:105464001140800000007800800f51000e003600cb
:10547400a04380000000e0000b0032001e80fb000f
:105484008001e900004080001140800000017800a4
:105494007218b90080007800405821000080400054
:1054a4000208780037003700004080001140800077
:1054b400000178001e80fb000000e9007200b900c2
:1054c40080007800205821000080400010007800ff
:1054d4002003b000800f51000d003e001e80fb0031
:1054e4000000e9007200b900000078008080e80044
:1054f4002058210000804000100178000040800006
:105504001140800000007800800f51001d0036001b
:105514001e80fb000000e900110020000008dd00ef
:1055240080007800a0438000008060000000e0005c
:10553400140032001e80fb008001e900004080005e
:1055440011408000000178007218b90080007800d2
:105554004058210000804000020878001e40780076
:1055640058ff07001e80fb000000e9007200b9002c
:105574008000780080582100008040008040eb00cb
:10558400014878000080fa00000006000200fa00da
:105594000040eb00004f78008d003700a1438000ed
:1055a4001e80fb000008de006100600000407800ff
:1055b4000004e000360032001e80fb007200b900d7
