:020000040000fa
:080000000002040000000000f2
:020000040000fa
:0400080014050000db
:020000040000fa
:04000c0014050000d7
:020000040000fa
:0400100014050000d3
:020000040000fa
:0400140014050000cf
:020000040000fa
:0400180014050000cb
:020000040000fa
:04001c0014050000c7
:020000040000fa
:0400200014050000c3
:020000040000fa
:0400240014050000bf
:020000040000fa
:0400280014050000bb
:020000040000fa
:04002c0014050000b7
:020000040000fa
:0400300014050000b3
:020000040000fa
:04003400e4020000e2
:020000040000fa
:0400380014050000ab
:020000040000fa
:04003c0014050000a7
:020000040000fa
:0400400014050000a3
:020000040000fa
:040044000a030000ab
:020000040000fa
:040048003003000081
:020000040000fa
:04004c001405000097
:020000040000fa
:040050001405000093
:020000040000fa
:04005400d4030000d1
:020000040000fa
:040058002c04000074
:020000040000fa
:04005c00a2030000fb
:020000040000fa
:040060001405000083
:020000040000fa
:04006400140500007f
:020000040000fa
:04006800140500007b
:020000040000fa
:04006c005404000038
:020000040000fa
:040070001405000073
:020000040000fa
:04007400140500006f
:020000040000fa
:04007800140500006b
:020000040000fa
:04007c001405000067
:020000040000fa
:040080001405000063
:020000040000fa
:04008400140500005f
:020000040000fa
:04008800140500005b
:020000040000fa
:04008c001405000057
:020000040000fa
:040090001405000053
:020000040000fa
:04009400560300000f
:020000040000fa
:040098007c030000e5
:020000040000fa
:04009c001405000047
:020000040000fa
:0400a0001405000043
:020000040000fa
:0400a400140500003f
:020000040000fa
:0400a800140500003b
:020000040000fa
:0400ac001405000037
:020000040000fa
:0400b0001405000033
:020000040000fa
:0400b400140500002f
:020000040000fa
:0400b800140500002b
:020000040000fa
:0400bc001405000027
:020000040000fa
:0400c0001405000023
:020000040000fa
:0400c400140500001f
:020000040000fa
:0400c800140500001b
:020000040000fa
:0400cc001405000017
:020000040000fa
:0400d0001405000013
:020000040000fa
:0400d400140500000f
:020000040000fa
:0400d800140500000b
:020000040000fa
:0400dc001405000007
:020000040000fa
:0400e0001405000003
:020000040000fa
:0400e40014050000ff
:020000040000fa
:0400e80014050000fb
:020000040000fa
:0400ec0014050000f7
:020000040000fa
:0400f00014050000f3
:020000040000fa
:0400f40014050000ef
:020000040000fa
:0400f80014050000eb
:020000040000fa
:0400fc0014050000e7
:020000040000fa
:0401000014050000e2
:020000040000fa
:0401040014050000de
:020000040000fa
:0401080014050000da
:020000040000fa
:04010c0014050000d6
:020000040000fa
:0401100014050000d2
:020000040000fa
:0401140014050000ce
:020000040000fa
:0401180014050000ca
:020000040000fa
:04011c0014050000c6
:020000040000fa
:0401200014050000c2
:020000040000fa
:0401240014050000be
:020000040000fa
:0401280014050000ba
:020000040000fa
:04012c0002040000c9
:020000040000fa
:0401300014050000b2
:020000040000fa
:0401340014050000ae
:020000040000fa
:0401380014050000aa
:020000040000fa
:04013c0014050000a6
:020000040000fa
:0401400014050000a2
:020000040000fa
:04014400140500009e
:020000040000fa
:04014800140500009a
:020000040000fa
:04014c001405000096
:020000040000fa
:040150001405000092
:020000040000fa
:04015400140500008e
:020000040000fa
:04015800140500008a
:020000040000fa
:04015c001405000086
:020000040000fa
:040160001405000082
:020000040000fa
:04016400140500007e
:020000040000fa
:0402080014050000d9
:020000040000fa
:04020c0014050000d5
:020000040000fa
:0402100014050000d1
:020000040000fa
:0402140014050000cd
:020000040000fa
:0402180014050000c9
:020000040000fa
:04021c0014050000c5
:020000040000fa
:0402200014050000c1
:020000040000fa
:0402240014050000bd
:020000040000fa
:0402280014050000b9
:020000040000fa
:04022c0014050000b5
:020000040000fa
:0402300014050000b1
:020000040000fa
:04023400e4020000e0
:020000040000fa
:0402380014050000a9
:020000040000fa
:04023c0014050000a5
:020000040000fa
:0402400014050000a1
:020000040000fa
:040244000a030000a9
:020000040000fa
:04024800300300007f
:020000040000fa
:04024c001405000095
:020000040000fa
:040250001405000091
:020000040000fa
:04025400d4030000cf
:020000040000fa
:040258002c04000072
:020000040000fa
:04025c00a2030000f9
:020000040000fa
:040260001405000081
:020000040000fa
:04026400140500007d
:020000040000fa
:040268001405000079
:020000040000fa
:04026c005404000036
:020000040000fa
:040270001405000071
:020000040000fa
:04027400140500006d
:020000040000fa
:040278001405000069
:020000040000fa
:04027c001405000065
:020000040000fa
:040280001405000061
:020000040000fa
:04028400140500005d
:020000040000fa
:040288001405000059
:020000040000fa
:04028c001405000055
:020000040000fa
:040290001405000051
:020000040000fa
:04029400560300000d
:020000040000fa
:040298007c030000e3
:020000040000fa
:04029c001405000045
:020000040000fa
:0402a0001405000041
:020000040000fa
:0402a400140500003d
:020000040000fa
:0402a8001405000039
:020000040000fa
:0402ac001405000035
:020000040000fa
:0402b0001405000031
:020000040000fa
:0402b400140500002d
:020000040000fa
:0402b8001405000029
:020000040000fa
:0402bc001405000025
:020000040000fa
:0402c0001405000021
:020000040000fa
:0402c400140500001d
:020000040000fa
:0402c8001405000019
:020000040000fa
:0402cc001405000015
:020000040000fa
:0402d0001405000011
:020000040000fa
:0402d400140500000d
:020000040000fa
:0402d8001405000009
:020000040000fa
:0402dc001405000005
:020000040000fa
:0402e0001405000001
:020000040000fa
:0402e40014050000fd
:020000040000fa
:0402e80014050000f9
:020000040000fa
:0402ec0014050000f5
:020000040000fa
:0402f00014050000f1
:020000040000fa
:0402f40014050000ed
:020000040000fa
:0402f80014050000e9
:020000040000fa
:0402fc0014050000e5
:020000040000fa
:0403000014050000e0
:020000040000fa
:0403040014050000dc
:020000040000fa
:0403080014050000d8
:020000040000fa
:04030c0014050000d4
:020000040000fa
:0403100014050000d0
:020000040000fa
:0403140014050000cc
:020000040000fa
:0403180014050000c8
:020000040000fa
:04031c0014050000c4
:020000040000fa
:0403200014050000c0
:020000040000fa
:0403240014050000bc
:020000040000fa
:0403280014050000b8
:020000040000fa
:04032c0002040000c7
:020000040000fa
:0403300014050000b0
:020000040000fa
:0403340014050000ac
:020000040000fa
:0403380014050000a8
:020000040000fa
:04033c0014050000a4
:020000040000fa
:0403400014050000a0
:020000040000fa
:04034400140500009c
:020000040000fa
:040348001405000098
:020000040000fa
:04034c001405000094
:020000040000fa
:040350001405000090
:020000040000fa
:04035400140500008c
:020000040000fa
:040358001405000088
:020000040000fa
:04035c001405000084
:020000040000fa
:040360001405000080
:020000040000fa
:04036400140500007c
:020000040000fa
:100400006f9421000e7f24000e0188000000000080
:10041000000020000000e000020032000001200087
:100420002002880014000700810107000000e0009e
:1004300003003a00607b2400010020000200370026
:100440000000200001002000810f70000100320038
:1004500014000700000020000000e000020032004d
:100460000000020000000000060c02000000000076
:100470000040da000000fe004440a90020012000f6
:100480000000e0000300320000002000a00188000e
:100490004440a800000006008a1f78008b1f7800e7
:1004a0000000060091018800800478000000eb0045
:1004b0001a003700e284440032a0b4009905ba0063
:1004c000e284440032a0b4009906ba00e2844400f9
:1004d00032a0b4000006eb00476fde00fd07b2005b
:1004e000636ce10003003a00ebff07000000eb0043
:1004f0000a003700606ce10004003a00005deb0088
:100500008b05e900fdff3e00040037006168e10053
:10051000010032000086eb000b00070019c7ba008b
:100520001905ba000e04e00003003a000a00e000da
:10053000e0ff3a0000000600fe07b2009e018800be
:100540008a047800f5ff3700395dba008b05e900b1
:100550000c003200295dba008b05e900080032006a
:100560000c00e00003003a00e284440032a0b40032
:10057000f5ff370019ddba008b05e900faff3a00f4
:100580008904e800e184440032a0b40000000600c1
:10059000dc130400000000004a1504000000000005
:1005a0000c16040000000000ca1604000000000041
:1005b000e21604000000000006190400000000001c
:1005c0001a190400000000003600f800809fbe00e9
:1005d000829fbe00849fbe00869fbe000000fa007e
:1005e0008460a90090c980000000e0000200320091
:1005f00090c98000000001000080fa004f03be0097
:100600004f02be004f01be004f00be003600f90091
:10061000004006003600f800809fbe00829fbe00aa
:10062000849fbe00869fbe000000fa0084e0a900ff
:10063000a0c980000000e00002003200a0c98000d4
:10064000000001000080fa004f03be004f02be0010
:100650004f01be004f00be003600f900004006000a
:100660003600f800809fbe00829fbe00849fbe00bf
:10067000869fbe000000fa008500a900b0c9800076
:100680000000e00002003200b0c98000000001005c
:100690000080fa004f03be004f02be004f01be00b3
:1006a0004f00be003600f900004006003600f8009a
:1006b000809fbe00829fbe00849fbe00869fbe00ba
:1006c0000000fa008760a900c0c980000000e000b7
:1006d00002003200c0c98000000001000080fa0062
:1006e0004f03be004f02be004f01be004f00be00d0
:1006f0003600f900004006003600f800809fbe007a
:10070000829fbe00849fbe00869fbe000000fa004c
:100710008780a900d0c980000000e00002003200fc
:10072000d0c98000000001000080fa004f03be0025
:100730004f02be004f01be004f00be003600f90060
:1007400000400600809fbe00821f78000000fa0073
:1007500085a0a900b6c8bf000080fb00011880007a
:1007600000014000c0932100000041000108780012
:10077000b6c8bf00e34f500004003e00b6c8bf003b
:100780000040e800b6e8b70003003700b668ef00a5
:1007900010c0b300b7e8b7000080fa004f0178003e
:1007a0004f00be00004006003600f800809fbe00eb
:1007b000829fbe00849fbe00869fbe000200fa009a
:1007c0008560a9000400370030118000004f7800d8
:1007d0001e80fb0088160700101180006100600079
:1007e0000000e000f8ff3a000080fa004f03be006e
:1007f0004f02be004f01be004f00be003600f900a0
:1008000000400600801f78000000fa008c20a9003c
:1008100010118000680060000000e000010032005c
:100820002262a90010118000640060000000e00056
:10083000010032002242a900101180006200600015
:100840000000e000010032002222a9000080fa002e
:100850004f007800004006003600f800809fbe0080
:10086000829fbe00849fbe00869fbe000000fa00eb
:100870008580a9003c1f0700e14f500002003a00ac
:10088000431f0700010037007c68ef000080fa007a
:100890004f03be004f02be004f01be004f00be001e
:1008a0003600f900004006003600f800809fbe00c8
:1008b000829fbe00849fbe00869fbe000000fa009b
:1008c0008620a900411080000040200000806000c8
:1008d0000000e00021003200a0c8bf00e14f50003e
:1008e0001e003a0007e2a900401680004800de0022
:1008f000614060000080fb00610060004800dd0096
:10090000411680000180a10001007000401688009f
:10091000cd02a800401680004900de006140600062
:100920000080fb00610060004900dd00411680008e
:100930000190a1000100700040168800cd22a8009f
:100940000942a90000000000a0c8bf000004e000a8
:10095000fdff3a000602a8002c003700411080007d
:1009600000082000008060000000e000020032006b
:1009700008e2a90025003700411080000004200093
:10098000008060000000e0000200320008c2a90000
:100990001e003700a0c8bf000080fb00e20f50001f
:1009a0000f003200e20f500003003c00e10f500046
:1009b0000600320013003700e30f50000a00320037
:1009c000e40f50000d0032000e003700a168ef0068
:1009d00020c0b300a0e8b700cd1c07000b00370013
:1009e000cb1c070009003700a168ef0020c0b3004e
:1009f000a0e8b700c61c070004003700a068ef009d
:100a000002003700a068ef00000000000080fa003c
:100a10004f03be004f02be004f01be004f00be009c
:100a20003600f900004006000040da000000fe0039
:100a30000000050003f0a200889fbe008a9fbe0050
:100a40008c1f78002a010700310133006450e10057
:100a50004f0032006420e1005200320003826c003b
:100a600007003b000905d0000306d000820f5400a8
:100a70000c065d0002003900020032008901780096
:100a8000030678008582550004003d000003fd0048
:100a90008103fd008502ea008b854200840f72000d
:100aa00002003b0060001000e08018006011b800f8
:100ab0000005eb007a28e1000a0039000600780002
:100ac000c75ddd00f707b200878075002d00370095
:100ad000828171000a017800610560008180d10087
:100ae0000080d3008502e900f9ff3b0006044000c6
:100af0008784480002003b0060041400e0841c006e
:100b00000988a300070032008a8171008281710088
:100b1000610164008904d1000884d3008b05e800da
:100b2000170037000978a30013003a000b00e0001b
:100b3000130034008b05e9000804440089844c004c
:100b40000a4474000978a3000d003a000b00e0008d
:100b5000070034008b05e9000804440089844c0038
:100b600001003a000b0020000978a300f7ff3200d3
:100b70000001eb0002003700828171000a01780059
:100b8000a00007000cf0a70001f0a000e90037006a
:100b90006420e10002003a00838f6c00e90033001a
:100ba0000801be000200be00e2003700889fbe00c0
:100bb0008a9fbe008c1f7800cd000700d400330050
:100bc00003866c006450e1002e0032006420e100d6
:100bd000330032006150e1002f0032006120e1005b
:100be0003100320085855500eb07b0000900200078
:100bf00008042000050037000804440089844c00e4
:100c00000a0031000603430087834b0000015300b4
:100c100081815b00f8ff33000203be000800a000e2
:100c20000804440089844c00f6ff3900c639dd0011
:100c30008301730001003200130020008904d100f9
:100c40000884d3000998a300050032000800a7001b
:100c50000300a0008904d1000884d3008b05e800bc
:100c60008904d1000884d3000001eb000281d20086
:100c70006400070001f0a1000cf0a70001f0a00043
:100c8000ac0037006420e100ae0032000801be0075
:100c90000200be00f7ff37006120e100a90032002a
:100ca0006000b800f3ff37000000200001f82700c3
:100cb000f0ff3700839f68000100e00002003d0064
:100cc00060001000e08018000300e00002003d001a
:100cd00060011100e0811900060107004f00e000eb
:100ce00002003b0060001000e080180000000600d9
:100cf000140020003a023700f4ff2f0038023700ba
:100d00000001be00650007000470a70003f0a10009
:100d10006509b100160032000d0035006828e100b9
:100d200006003500f0ff2f00f1ff27000300e00070
:100d300013003b00010028000000050000004000f7
:100d4000818048008502e900fcff3a000800370076
:100d5000f88f420002003c008000eb00000005001c
:100d60008100d1000080d3008502e800fcff3a003a
:100d70000300e00002003b0060001000e08018006b
:100d8000000006000001be00440007000470a70038
:100d900003f0a10003f8a30013003a006509b100b5
:100da00010003200090035006928e100020035001a
:100db000010028000000050000004000818048007c
:100dc0008502e900fcff3a0000000600f88f4200af
:100dd000050035008100d1000080d3008502e800c5
:100de000fcff3a00000006008000eb000000050058
:100df0004f89de0082017800140237006011b800cc
:100e00002202370081002000618055000b003d0068
:100e10000b00200061fe2f000100e1001d003400e6
:100e200082817100610164008904d1000884d300cb
:100e30000000e800faff3a00710020006100640041
:100e400003007000020060000900320061044400e9
:100e5000e0844c000988a500050032008b05e800fd
:100e60006808e10002003a008904d1000884d30038
:100e7000f20f20000258e10005003d00c75ddd00d3
:100e8000f907b200898075000800780000000600ac
:100e90000bf827008b00780000000500c70ade0071
:100ea000f107b200f50fb20008003200e1cf4200b6
:100eb000020032000170a00024000500810f7000c4
:100ec000010032000408050044000500810f700095
:100ed00002003a00140005008502e900000040000d
:100ee00081c04800fcff3b000170a0002400050009
:100ef0000004be00e9ff07000003be000405be00b9
:100f00000200be00e5ff0700844f750000000600e8
:100f10000200be006450e100050036006420e100dc
:100f2000020036000968a30001003a000800be0074
:100f30000160a0004f0678004f05be004f04be00c0
:100f400000000600f0ff2f00f1ff2700f9ff370037
:100f5000889fbe008a9fbe008c1f7800e4ff0700b8
:100f6000ebff330003866c006450e1002400320084
:100f70006420e100270032006150e10022003200cd
:100f80006120e100210032008b854200eb07b100b7
:100f90000134b800003ab8000804420089844a00cd
:100fa000013ab8000030b8008880400009014a00ca
:100fb0000400330000004000818048000201490025
:100fc0008b05e900c909dd008301700001003200d2
:100fd00013002000c814de004814dd004709de00bd
:100fe0001200b200c808de000884700085ff070008
:100ff00001f0a1000cf0a70001f0a000cdff370028
:101000006120e100cfff32000801be000200be00f7
:10101000f7ff37006150e100fcff3a00c9ff3700dd
:10102000889fbe008a9fbe008c1f78000004be000f
:101030009aff07000478a30026003a006120e1002f
:101040002500320009f8a30025003a006420e100e1
:1010500021003200f507b1000508a30002003200ac
:1010600000004000818048006044b8000310200068
:101070000200200000004000818048000805440074
:1010800089854c000a0541008b8549000a055000fe
:101090008b855800030033000a00be000204740070
:1010a000838474008301d1000281d300830f710017
:1010b000f0ff3a008904d1000884d30060014900a0
:1010c00082017800c1adde00fb07b0004dff0700d4
:1010d00098ff37000960a0000800be0095ff3700a8
:1010e00012022000c2458800f0ff2f00f1ff270008
:1010f00090ff37006022b800060220000000d000f8
:101100008180d2000482d2008582d2000000a0003b
:101110000202520083825a000300310002024200a0
:1011200083824a000000a1000603e900f3ff3a00b1
:1011300000000600889fbe008a9fbe003004420067
:10114000b0844a0030054b0090854b006000b10030
:101150000898be000a90be000440e10005c8e10006
:1011600006d0e10007d8e10002003100680040002d
:101170001008e8004f05be004f04be000000060046
:10118000889fbe008a9fbe003004be002005be00be
:101190000418540005985c0006185d0007985d006f
:1011a000110020000440e10005c8e10006d0e10084
:1011b00007d8e100010039008000eb001088100022
:1011c0004f05be004f04be00000006001200fa00ea
:1011d000889fbe008a9fbe008c9fbe00e0b79f0024
:1011e000f1b79f0082bf9f0093bf9f000605be001e
:1011f0000404be000000eb00d0b79f00c0b79f0002
:10120000b0b79f00a0b79f0090b79f00000678007e
:101210005fb19700cfb09700820141003fb09700c7
:101220000200e00004003d00370007007e80570008
:10123000c0ff070003003700330007007e8057001f
:10124000cfff0700dfb697000d00e0000c0035006f
:101250006fb29700ffb297000fbb97009fbb97003c
:1012600010002000010020006011b8000002720090
:101270008182720002037300838373001b000700e6
:101280000c06e80001042000810f5600e0ff3a0040
:101290000d00e00004003d000802be000a03be008d
:1012a0007e805700a3ff07005fa897000000e000c2
:1012b00005003a001fb29700afb297003fb3970006
:1012c000cfb39700090007006fb09700ffb09700f9
:1012d0000fb997009fb997004f06be004f05be009b
:1012e0004f04be000080fa00000006000100070065
:1012f00000000600a4b79f00b5b79f00c6b79f00c7
:10130000d7b79f00000006004f09de008281710000
:10131000b3b79f004f01de008180400082807000e3
:10132000a1b79f008fb097004f09de00000040007a
:101330000200700090b79f007fa897004f01de0069
:10134000818040008280700081b79f000d000700ff
:101350004f3ade000000400004007000f0af9f0034
:10136000080007000402420085824a0006034b0081
:1013700087834b00dfff07000802be000a03be00a0
:10138000000006002fb29700bfb297004fb397003e
:10139000dfb3970000000600881f780018002000c7
:1013a000881f780089ff07008f87e9004f047800c5
:1013b00000000600801feb0084ff07008f87e90014
:1013c00000000600889fbe008a9fbe00e00f50000c
:1013d000e08f5800e00f5900e08f59000c003d00ed
:1013e0006044b8006055b8000000540081805c0083
:1013f00002015d0083815d001800200015000700d8
:1014000008003d00180007000004eb00050037004d
:101410000004eb000f00070002003d00120007006f
:1014200018002000dcff07000800e0000600320082
:101430006022b8006033b8000000520081805a007a
:1014400002015b0083815b004f05be004f04be00bc
:1014500000000600e00f5200e08f5a00e00f5b0032
:10146000e08f5b00000006006044b8006055b800e3
:101470000402540085825c0006035d0087835d00e2
:1014800000000600889fbe008a9fbe008c1f780067
:10149000e00f5000e08f5800e00f5900e08f590036
:1014a0000d003d006044b8006055b80000005400d5
:1014b00081805c0002015d0083815d001c002000d2
:1014c0000820e10009a8e1000ab0e1000bb8e10042
:1014d0000d003d00080037000006eb00e00f520051
:1014e000e08f5a00e00f5b00e08f5b0006003d00dc
:1014f0006044b8006055b8000402540085825c0066
:1015000006035d0087835d00aaff07000c00e00072
:10151000060032006022b8006033b80000005200bc
:1015200081805a0002015b0083815b004f067800d6
:101530004f05be004f04be0000000600889fbe009d
:101540008a9fbe008c1f78000006eb00e00f500061
:10155000e08f5800e00f5900e08f590007003d0070
:101560006044b8006055b8000000540081805c0001
:1015700002015d0083815d001c002000e00f52002d
:10158000e08f5a00e00f5b00e08f5b0007003d003a
:101590006044b8006055b8000402540085825c00c5
:1015a00006035d0087835d000c00a2006600070053
:1015b0000c00e000060032006022b8006033b80082
:1015c0000000520081805a0002015b0083815b00b1
:1015d0004f0678004f05be004f04be000000060015
:1015e000889fbe008a9fbe00841f780040fe0700cf
:1015f0004f00780011003300f0ff2f00838f6c0044
:1016000006003b00040565000a00a700080037003b
:1016100009f0a6001000200008003700820f5400d7
:10162000838f5c00030039001000200001003e00a1
:101630000000200009f0a7000000ea004f05be00ee
:101640004f04be000000e00000000600881f780084
:10165000030478000300e00007003d006000100074
:10166000e080180060011900e081190002003b00d1
:1016700001f02d00030037000400070008f0a70068
:1016800001f0a0004f04780000000600889fbe0013
:101690008a9fbe0000827000040271000482710003
:1016a000260032000004be000200be006011b80037
:1016b0006b092000950220000182cf000a0039004a
:1016c0000541b1000082cf00070039000541b1009b
:1016d0000982cf00040039000541b1000882cf0023
:1016e000010039000541b1000542520012003200ec
:1016f0000a003b0082817100610164008100d10019
:101700000080d3008984d3000884d3008b05e800cf
:101710000442e800f7ff3a000700370008044400dd
:1017200089844c0000004800818048008b05e90056
:101730000442e900f9ff3a00b2fd07004f05be0080
:101740004f04be0000000600889fbe008a9fbe00b6
:101750008c9fbe000404b8000506b800890446004a
:1017600060854e000606b8000a054600e0854e007a
:101770000706b8008b054600040eb8008904460031
:101780000a854e00e0854d00050eb8000a054600aa
:101790008b854e00060eb8008b0546000416b80077
:1017a0000a0546008b854e000516b8008b054600dd
:1017b000041eb8008b0546000800be000a01be00ea
:1017c0004f06be004f05be004f04be0000000600dd
:1017d000800078003104e000feff3a000080ea005b
:0817e00000804000000006003b
:020000040000fa
:1017e800d04000001806000000d00000612c000066
:1017f80007070000d05100002c070000d04000006f
:0418080018060000be
:020000040000fa
:10180c001a00fa00889fbe00881e0700811d070081
:10181c00c41d07000043eb0045c0b30014c0b30067
:10182c00c13d210002002000832c24000040eb006d
:10183c002b1207000043eb0045c0b30014c0b300eb
:10184c00a154210002002000832c240010c0b300fe
:10185c00231207000043eb0045c0b30014c0b300d3
:10186c00c1602100020020006349240020c0b300a5
:10187c001b12070016c0b30065c0b30014c0b30040
:10188c00a16c210002002000a347240030c0b3004b
:10189c001312070016c0b30035c0b30014c0b30058
:1018ac00216e2100020020008324240040c0b300dc
:1018bc000b120700271e0700301e0700391e0700f9
:1018cc00ad1a07009217070000a821006100200044
:1018dc007f1e070000902000d10320007c1e070013
:1018ec00c4e2a800c542a800c422a900802520009b
:1018fc000100200070c5880081c588000000200010
:10190c00a147240010c5880021c5880000002000d4
:10191c00a147240090c48800a1c488006000b800ce
:10192c0050c5880061c588006000b80030c58800cb
:10193c0041c588006000b800e0c58800f1c588008a
:10194c006000b80000c6880011c688006000b800ae
:10195c0020c6880031c6880000002800214a2400d7
:10196c00a0c58800b1c5880000002400c151240026
:10197c0050c4880061c48800a099290091f123000b
:10198c0070c4880081c4880000482800e101200050
:10199c00e0c68800f1c68800208b2100c1c0b300ce
:1019ac0001487800808721008040eb0001487800d6
:1019bc0000002000011f2c0030c4880041c48800a6
:1019cc0050168000700060000000e0001d003a001e
:1019dc0090168000640060000000e00019003a00de
:1019ec008c68ef00400d2400818923002040880082
:1019fc0031408800100607008025200001002000df
:101a0c0070c5880081c5880000002800214a240088
:101a1c0090448800a14488006390210022c0b30048
:101a2c00a12c200010c0b300da140700a3912100f0
:101a3c000041eb00212d200020c0b300d51407007d
:101a4c0013003700d01d2200518c23002040880049
:101a5c0031408800f8050700204e200001002000ce
:101a6c0070c5880081c588006390210022c0b30036
:101a7c00212d200010c0b300c6140700a391210033
:101a8c000041eb00212d200020c0b300c114070041
:101a9c000400200005f82300d2cc2c00c3d4230072
:101aac000000200001fa2300370a070050168000be
:101abc00680060000000e00004003a006000b8001c
:101acc00e0c58800f1c58800c4e2a800991d070094
:101adc000004e000620032009a1d0700911d07000f
:101aec00100798001e00900010007800000f98005e
:101afc001e0090000080e80010007800100f980085
:101b0c001e0090006400400010007800200f980028
:101b1c001e0090006600400010007800300f980006
:101b2c001e0090006800400010007800400f9800e4
:101b3c000e0890008000eb00adfc07003233230050
:101b4c0033a52300fffc0700f0c3880001c4880004
:101b5c00400a2700d1f9230020079800310798008c
:101b6c00f0c3800001c48000a2702d0033da230082
:101b7c00adfb0700400798005107980010002000ab
:101b8c00000f780018c0b3006011b8004e00900030
:101b9c00de00900053fc07000000e000010035005f
:101bac000044eb000804e000030032000080eb006e
:101bbc00000f78000200370010002000000f7800a2
:101bcc0018c0b3006011b8004e009000de00900009
:101bdc0046fc07000000e00001003c000044eb0064
:101bec000804e000050032004e009000de0090007a
:101bfc000001be008dfb0700050037004e00900071
:101c0c00de00900001f0a2000001be0087fb07007f
:101c1c002e019000be019000e1fb0700fdfc0700c7
:101c2c000004be001e007800cf80de006dfc0700b3
:101c3c000001be000800be00c2fc0700600798004f
:101c4c0071079800a2df2e00b3a623006e0090004f
:101c5c00fe009000bbfc0700d0c48800e1c48800e3
:101c6c00140007004a010700be0107002e020700fe
:101c7c009e0207008dff37000000fa003868ef0065
:101c8c0038c8bf0037e8b70037c8bf0036e8b70020
:101c9c002628ef000000eb00ac0107000000eb0071
:101cac001b0207000000eb008a0207000080fa000c
:101cbc00000006000000fa00881f78003041800008
:101ccc00e50f5000c0003200e50f500009003e0047
:101cdc00e10f500028003200e10f50000e003900d7
:101cec00e20f50003d003200e30f5000550032006f
:101cfc0024013700e70f500086003200e70f500038
:101d0c00c6003900e80f50008f003200e90f500078
:101d1c00030132001b013700c422a8008cc8bf008d
:101d2c000004e0000c00320036c8bf000004e000e4
:101d3c000301320037c8bf000004e000020132008a
:101d4c0038c8bf000004e000010132001000200080
:101d5c00304188000b01370036c8bf000004e0009a
:101d6c00fd00320020002000780107001000200048
:101d7c0030418800030137009ec8bf000004e0001a
:101d8c000a003200c422a80010c0b30039e8b70022
:101d9c00200020003041880000408000114080006d
:101dac004041880051418800010037003968ef003c
:101dbc00008e2100104078000004e000e8003200a2
:101dcc00900020003041880011c0b3000040eb00af
:101ddc0072100700c422a800ea0037008dc8bf00ab
:101dec000004e00004003a000868ef0081060700d8
:101dfc0010c0b30008e8b7008cc8bf000004e000b6
:101e0c0003003200200020005001070002003700c0
:101e1c00400020004d01070020002000bc010700fd
:101e2c00200020002b0207000040800011408000a1
:101e3c00404188005141880030002000304188002a
:101e4c00d0003700b0c48000c1c48000cafb0700ba
:101e5c000001be0040418000514180000201400061
:101e6c00838148000040800011408000800f5100a9
:101e7c00818f590004003e00c4e2a900c542a900ac
:101e8c007000200030418800f4c3800005c480003d
:101e9c0050c4800061c4800018c0b3000001be00b3
:101eac000400be0091fb07000000e00001003d00b3
:101ebc000044eb000804e0000d003a00f4c480007c
:101ecc0005c5800070c4800081c4800018c0b300b8
:101edc000001be000400be0084fb07000000e0000f
:101eec0001003d000044eb000804e0000200320059
:101efc0070002000304188009ec8bf000004e00044
:101f0c0099003a001000200030418800c422a9003a
:101f1c009c003700600020000c01070060002000ce
:101f2c007b01070060002000ea01070000408000f0
:101f3c001140800040418800514188008000200001
:101f4c00304188008f00370090c48000a1c480000d
:101f5c0089fb07000001be00404180005141800018
:101f6c000201400083814800004080001140800045
:101f7c00800f5100818f59000c003e006000b800aa
:101f8c00f0c4880001c588008dc8bf000004e000c3
:101f9c0003003a000868ef0016060700010037003e
:101fac008d68ef0050002000304188009ec8bf00b3
:101fbc000004e0006e003a00100020003041880060
:101fcc00c422a9006f00370010c0b30008e8b700a6
:101fdc008cc8bf000004e000030032004000200069
:101fec00da0007000200370020002000d7000700ad
:101ffc00400020004601070040002000b50107000a
:10200c000040800011408000404188005141880010
:10201c0060002000304188005a0037008087210082
:10202c00104078000004e0002200320010c580004f
:10203c0021c5800050fb07008101d1000081d30035
:10204c0040418000514180000201400083814800e2
:10205c000040800011408000800f5100818f59009a
:10206c0028003e00f4c3800005c4800030c480000a
:10207c0041c4800018c0b3000001be000400be00c3
:10208c0018fb07000000e000010035000044eb00e5
:10209c000804e0001b00320000408000114080006a
:1020ac0040418800514188002000200030418800c8
:1020bc001400370010c5800021c580002efb0700de
:1020cc000001be00404180005141800002014000ef
:1020dc00838148000040800011408000800f510037
:1020ec00818f590007003e00c542a80000408000c7
:1020fc0011408000404188005141880020002000a0
:10210c00304188009ec8bf000004e0001a003a006d
:10211c001000200030418800c422a90019003700ab
:10212c00008e2100104078000004e00014003a00fa
:10213c001000200030418800c422a9001100370093
:10214c00000000000f003700000000000d003700f9
:10215c00000000000b0037000000000009003700f1
:10216c0000000000070037000000000005003700e9
:10217c0000000000030037000000000001003700e1
:10218c00000000004f0478000080fa0000000600f8
:10219c000000fa00889fbe00d0418000e30f500081
:1021ac0031003200e30f500005003e00e10f5000fb
:1021bc0017003200e10f500021003e0007003700ed
:1021cc00e50f50003e003200e50f500030003900a2
:1021dc00e60f500050003200590037009044800048
:1021ec00a144800002002000a34724000efa07003f
:1021fc000002be0002002500337c2c0010c0b3008e
:10220c00c104070010002000d04188004c003700aa
:10221c0050168000680060000000e00043003a00a7
:10222c0010c0b3004c0507006000b800e0c5880082
:10223c00f1c5880040002000d041880040003700e4
:10224c00a0c58000b1c580000002be0002002000c5
:10225c0083242c0010c0b300ab0407003000200016
:10226c00d0418800360037005016800068006000ae
:10227c000000e0002f003a006000b800e0c58800c4
:10228c00f1c5880060002000d04188002c00370088
:10229c0098448000a944800070c5800081c58000ee
:1022ac00d0fa07000802be000001be0010c0b30047
:1022bc009504070050002000d04188002000370012
:1022cc0050168000640060000000e0000d00320039
:1022dc00e4c58000f5c5800040c6800051c6800072
:1022ec0018c0b3000001be000400be007ffa070056
:1022fc000000e00001003d000044eb000804e00099
:10230c000e00320060002000d041880010c0b300e5
:10231c0036e8b7000a00370010c0b3000e050700fe
:10232c0070002000d041880005003700000000003c
:10233c00030037000000000001003700000000001f
:10234c004f04be000080fa00000006000200fa00f4
:10235c00000f78009e007800d14188000080fa00c0
:10236c00000006000000fa00889fbe00e0418000db
:10237c00e30f500031003200e30f500005003e0027
:10238c00e10f500017003200e10f500021003e0019
:10239c0007003700e50f50003e003200e50f5000fb
:1023ac0030003900e60f50004c0032005500370069
:1023bc0090448000a144800002002000a347240028
:1023cc0099f907000002be0002002500337c2c00a6
:1023dc0020c0b3004c04070010002000e04188002e
:1023ec004800370090168000620060000000e0009a
:1023fc003f003a0020c0b300d70407006000b800cb
:10240c0000c6880011c6880040002000e04188000a
:10241c003c003700a0c58000b1c580000002be00a2
:10242c000200200083242c0020c0b30036040700d7
:10243c0030002000e0418800320037009016800008
:10244c00620060000000e0002b003a006000b80061
:10245c0000c6880011c6880060002000e04188009a
:10246c002800370098448000a944800070c5800083
:10247c0081c580005bfa07000802be000001be00a7
:10248c0020c0b3002004070050002000e041880069
:10249c001c00370004c6800015c6800060c6800092
:1024ac0071c6800018c0b3000001be000400be005d
:1024bc000efa07000000e00001003d000044eb00b4
:1024cc000804e0000e00320060002000e0418800ab
:1024dc0010c0b30037e8b7000a00370020c0b300c3
:1024ec009d04070070002000e041880005003700c3
:1024fc00000000000300370000000000010037005e
:10250c00000000004f04be000080fa00000006002e
:10251c000200fa00000f78009e007800e14188006c
:10252c000080fa00000006000000fa00889fbe0040
:10253c00f0418000e30f500031003200e30f5000f7
:10254c0005003e00e10f500017003200e10f500073
:10255c0021003e0007003700e50f50003e0032001e
:10256c00e50f500030003900e60f50004c003200ef
:10257c005500370090448000a144800002002000e8
:10258c00a347240028f907000002be000200250022
:10259c00337c2c0030c0b300db030700100020009c
:1025ac00f041880048003700501680007000600031
:1025bc000000e0003f003a0030c0b30066040700a2
:1025cc006000b80020c6880031c68800400020009a
:1025dc00f04188003c003700a0c58000b1c58000e8
:1025ec000002be000200200083242c0030c0b30087
:1025fc00c503070030002000f0418800320037008e
:10260c0050168000700060000000e0002b003a00c3
:10261c006000b80020c6880031c688006000200029
:10262c00f04188002800370098448000a9448000bd
:10263c0070c5800081c58000eaf907000802be0061
:10264c000001be0030c0b300af03070050002000f3
:10265c00f04188001c00370024c6800035c680007d
:10266c0080c6800091c6800018c0b3000001be0077
:10267c000400be009df907000000e00001003d00d1
:10268c000044eb000804e0000e0032006000200063
:10269c00f041880010c0b30038e8b7000a003700da
:1026ac0030c0b3002c04070070002000f0418800fb
:1026bc000500370000000000030037000000000098
:1026cc0001003700000000004f04be000080fa003b
:1026dc00000006000200fa00000f78009e0078004f
:1026ec00f14188000080fa00000006000000fa00aa
:1026fc0050168000640060000000e00008003a0002
:10270c0040c8bf000004e00005003a0010c0b30050
:10271c0040e8b70010c0b300451207000a003700ac
:10272c0050168000640060000000e00006003200db
:10273c0040c8bf00e14f500003003a004068ef0072
:10274c0010c0b3007d12070090168000610060007d
:10275c000000e00008003a0041c8bf000004e0009f
:10276c0005003a0010c0b30041e8b70020c0b30028
:10277c002f1207000a0037009016800061006000dd
:10278c000000e0000600320041c8bf00e14f5000dd
:10279c0003003a004168ef0020c0b3006712070045
:1027ac00ca1207000080fa00000006000000fa00c0
:1027bc00881f78008cc8bf000004e000580032006d
:1027cc0044c6800055c68000e0c58000f1c580007d
:1027dc0018c0b3000001be000400be0043f907009e
:1027ec000000e00001003c000044eb000804e000a5
:1027fc001d003200c522a900a11680000004200093
:10280c000080600000f0a7000000ea000000e90072
:10281c004f00de00004078000080fb00610060008b
:10282c004600dd00a11680000160a10001007000cf
:10283c00a0168800a1168000000420000080600013
:10284c000000e0008d003a00e0c58000f1c580007a
:10285c000200200003f8230074f80700e0c588008c
:10286c00f1c588008500370044c6800055c680003d
:10287c00e0c58000f1c5800018c0b3000001be00a7
:10288c000400be0017f907000000e000010035004d
:10289c000044eb000804e0001d003200c522a80033
:1028ac00a1168000000420000080600000f0a7004a
:1028bc000000ea000000e9004f00de000040780054
:1028cc000080fb00610060004600dd00a116800066
:1028dc000160a10001007000a0168800a116800004
:1028ec0000042000008060000000e00063003a005b
:1028fc00e0c58000f1c580000200200003f8230031
:10290c0049f80700e0c58800f1c588005b00370076
:10291c008040eb000040eb00a00d07005700370093
:10292c0044c6800055c68000e0c58000f1c580001b
:10293c0018c0b3000001be000400be00ebf8070095
:10294c000000e00001003c000044eb000804e00043
:10295c001d003200c522a900a11680000004200031
:10296c000080600000f0a7000000ea000000e90011
:10297c004f00de00004078000080fb00610060002a
:10298c004600dd00a11680000160a100010070006e
:10299c00a0168800a11680000004200000806000b2
:1029ac000000e00035003a00e0c58000f1c5800071
:1029bc000200200003f823001cf80700e0c5880083
:1029cc00f1c588002d00370044c6800055c6800034
:1029dc00e0c58000f1c5800018c0b3000001be0046
:1029ec000400be00bff807000000e0000100350045
:1029fc000044eb000804e0001d003200c522a800d2
:102a0c00a1168000000420000080600000f0a700e8
:102a1c000000ea000000e9004f00de0000407800f2
:102a2c000080fb00610060004600dd00a116800004
:102a3c000160a10001007000a0168800a1168000a2
:102a4c0000042000008060000000e0000b003a0051
:102a5c00e0c58000f1c580000200200003f82300cf
:102a6c00f1f70700e0c58800f1c5880003003700c6
:102a7c008040eb000040eb00480d07004f0478004d
:102a8c000080fa00000006000000fa00881f7800a1
:102a9c008cc8bf000004e0005900320064c68000fe
:102aac0075c6800000c6800011c6800018c0b30037
:102abc000001be000400be008cf807000000e0001e
:102acc0001003c000044eb000804e0001b00320055
:102adc00cca2a900a01680006800600000f0a7003e
:102aec000000ea000000e9004f00de000040780022
:102afc000080fb00610060004300dd00a116800037
:102b0c000130a10001007000a0168800a016800002
:102b1c00680060000000e00033003a0000c680004e
:102b2c0011c680000200200003f82300bff7070045
:102b3c0000c6880011c688002b00370064c68000d0
:102b4c0075c6800000c6800011c6800018c0b30096
:102b5c000001be000400be0062f807000000e000a7
:102b6c00010035000044eb000804e0001b003200bb
:102b7c00cca2a800a01680006800600000f0a7009e
:102b8c000000ea000000e9004f00de000040780081
:102b9c000080fb00610060004300dd00a116800096
:102bac000130a10001007000a0168800a016800062
:102bbc00680060000000e0000b003a0000c68000d6
:102bcc0011c680000200200003f8230096f70700ce
:102bdc0000c6880011c68800030037008040eb0057
:102bec0010c0b300ed0c0700604180007141800003
:102bfc0061004000e080480060418800714188001d
:102c0c004f0478000080fa00000006000000fa0073
:102c1c00881f78008cc8bf000004e0005700320009
:102c2c0084c6800095c6800020c6800031c6800016
:102c3c0018c0b3000001be000400be002bf8070052
:102c4c000000e00001003c000044eb000804e00040
:102c5c001d003200cde2a9006116800000002400a6
:102c6c000080600000f0a7000000ea000000e9000e
:102c7c004f00de00004078000080fb006100600027
:102c8c004e00dd006116800001e0a1000100700023
:102c9c00601688006116800000002400008060002f
:102cac000000e00035003a0020c6800031c68000ec
:102cbc000200200003f823005cf7070020c6880000
:102ccc0031c688002d00370084c6800095c6800070
:102cdc0020c6800031c6800018c0b3000001be00c1
:102cec000400be00fff707000000e0000100350003
:102cfc000044eb000804e0001d003200cde2a80007
:102d0c0061168000000024000080600000f0a70025
:102d1c000000ea000000e9004f00de0000407800ef
:102d2c000080fb00610060004e00dd006116800039
:102d3c0001e0a1000100700060168800611680009f
:102d4c0000002400008060000000e0000b003a004e
:102d5c0020c6800031c680000200200003f823004a
:102d6c0031f7070020c6880031c688000300370001
:102d7c008040eb0020c0b300880c07004f047800a3
:102d8c000080fa00000006000000fa0000408000fd
:102d9c001140800061004000e08048000040880045
:102dac0011408800304580000000e8003045880064
:102dbc000080fa00000006001e00fa00889fbe008a
:102dcc0000408000114080004808de000040780080
:102ddc00204f980000408000114080004008de0029
:102dec0000407800304f9800004080001140800077
:102dfc004809dd004800de0000007100c808de0054
:102e0c0000407800404f9800004080001140800046
:102e1c0000407800504f9800f0c4800001c580003d
:102e2c006a0247000001be00410020000400780047
:102e3c0087170700f0c3800001c480006a024700b6
:102e4c000001be00810020000400780080170700fc
:102e5c00e0c58000f1c580006a0247000001be0099
:102e6c00c100200004007800791707006a004700b1
:102e7c00000178000101200040062000300f0700ff
:102e8c0008c8bf000004e0004a00320090408000f7
:102e9c00a1408000a2702d0033ca2300e3f6070086
:102eac0090408800a1408800f4c4800005c58000d3
:102ebc00504080006140800018c0b3000001be008b
:102ecc000400be0089f707000000e00001003c0090
:102edc000044eb000804e00004003200f0c4800061
:102eec0001c580005040880061408800f0c480001b
:102efc0001c58000a2702d0033ca230011f8070011
:102f0c000002be0070408000814080000001be00c5
:102f1c000400be00c5f607007040880081408800a0
:102f2c00f040800001418000a2702d0033ca2300c4
:102f3c00bef60700f040880001418800f4c3800011
:102f4c0005c48000b0408000c140800018c0b300b0
:102f5c000001be000400be0064f707000000e000a2
:102f6c0001003c000044eb000804e00004003200c7
:102f7c00f0c3800001c48000b0408800c1408800cc
:102f8c00f0c3800001c48000a2702d0033ca23005e
:102f9c00ecf707000002be00d0408000e14080004a
:102fac000001be000400be00a0f60700d04088005f
:102fbc00e1408800fb0047007a0047002400200015
:102fcc00810178000001eb008000780000c5b3009f
:102fdc00b81207004e5890008080fb003e589000bd
:102fec000081fb00f0032000000061004800dd00c0
:102ffc008080400060a02f0000804000cf80de0069
:10300c0078f7070062462f0033e82300cdf707005e
:10301c00f0c3880001c4880043c8bf008080fb0057
:10302c008100ea00cf08de00814078000040e80013
:10303c0043e8b7000104e0005e0032004368ef0093
:10304c007d160700d0c38800e1c3880010c0b30010
:10305c00004f7800d2c38000e3c3800012079800b1
:10306c002307980018c0b3006011b8001e00900030
:10307c00ae0090001bf707000000e00001003500d7
:10308c000044eb000804e0000300320000c0eb0039
:10309c00004f78000200370010c0b300004f7800da
:1030ac0018c0b3006011b8001e009000ae00900074
:1030bc000ef707000000e00001003c000044eb00ac
:1030cc000804e000080032001e009000ae009000e2
:1030dc000001be0055f60700420a2700d3f9230071
:1030ec00aff60700080037001e009000ae009000fd
:1030fc0001f0a2000001be004cf60700420a2700b6
:10310c00d3f92300a6f60700c2f707000004be009f
:10311c001e00fb00cf80de0032f707000001be006e
:10312c000800be0087f70700300798004107980099
:10313c0020408000314080003e019000ce01900084
:10314c0080f70700d0c48800e1c4880018c0b30021
:10315c00a2702d0033c223003e009000ce009000e0
:10316c00e2f607000000e00001003d000044eb0027
:10317c000804e0000f003200f8c4800009c580008c
:10318c00d0c48000e1c4800002002000a3472400ca
:10319c006cf7070002002000831c240080f6070057
:1031ac000001be000800be0020f60700f0c4880035
:1031bc0001c5880042c8bf008080fb008100ea0086
:1031cc00cf08de00814078000040e80042e8b700fc
:1031dc000104e0000700320090418000a141800012
:1031ec006011b80011f6070090418800a1418800d9
:1031fc004268ef004f04be000080fa000000060099
:10320c000000fa0039c8bf000004e00003003a00d7
:10321c0010c0b3009ee8b700010037009e68ef00b5
:10322c000080fa00000006000000fa0092fa070085
:10323c000080fa00000006000800fa00889fbe001b
:10324c00208b2100104078000080fb008000eb00f8
:10325c000001be0000a62e000100200092f607001f
:10326c00e0f60700008fbe006000b8002007980051
:10327c00310798008cc8bf000004e00052003a00ef
:10328c0070c5800081c58000d6f607000004be0022
:10329c00d2cc2c00c3e423001e00be0029f707008b
:1032ac0002002000a34724003df607000001be00e9
:1032bc000800be003af60700200798003107980076
:1032cc0070c5800081c580000000400081804800ee
:1032dc00c4f607000004be00d2cc2c00c3e42300cb
:1032ec001e00be0017f7070002002000a3472400b1
:1032fc002bf607000001be000800be0028f60700f0
:10330c000002be0090448000a144800018c0b300ad
:10331c000001be000400be0072f607000000e000d1
:10332c00010035000044eb000804e00011003200fd
:10333c0070c5800081c5800000004000818048007d
:10334c00a8f607000004be00d2cc2c00c3e4230076
:10335c001e00be00fbf6070002002000a34724005d
:10336c000ff607000001be000800be000cf60700b7
:10337c000200370090448000a1448000a0c5880062
:10338c00b1c58800d2cc2c00c3e423001e00be00c3
:10339c00ecf60700b0c48800c1c48800020020000d
:1033ac00a34724001e00be00e6f60700d2cc2c007a
:1033bc00c3e42300e3f607006ff60700e0c68800bd
:1033cc00f1c688004100370070c5800081c58000bf
:1033dc00000040008180480082f607000004be0017
:1033ec00d2cc2c00c3e423001e00be00d5f607008f
:1033fc0002002000a3472400e9f507000001be00ed
:10340c000800be00e6f507000002be0090448000f4
:10341c00a144800018c0b3000001be000400be002f
:10342c0030f607000000e000010035000044eb001e
:10343c000804e0001100320070c5800081c58000d6
:10344c00000040008180480066f607000004be00c2
:10345c00d2cc2c00c3e423001e00be00b9f607003a
:10346c0002002000a3472400cdf507000001be0098
:10347c000800be00caf50700020037009044800027
:10348c00a1448000a0c58800b1c58800d2cc2c0016
:10349c00c3e423001e00be00aaf60700b0c48800d7
:1034ac00c1c4880002002000a34724001e00be00f7
:1034bc00a4f60700d2cc2c00c3e42300a1f607002d
:1034cc002df60700e0c68800f1c68800a2992900f5
:1034dc0093e923001e00be009af6070090c48800f2
:1034ec00a1c488000200200003f023001e00be00cf
:1034fc0094f6070010c5880021c588004f04be0053
:10350c000080fa00000006000a00fa00004f780064
:10351c001207980023079800340798004507980075
:10352c001e80fb00e30f500024003200e30f50001c
:10353c0005003c00e10f500008003200e20f500083
:10354c001200320041003700e40f50002700320017
:10355c00e50f5000310032003c0037003e01900076
:10356c00ce0190000040eb009c0707001e0190006c
:10357c00ae01900042c6880053c6880011c0b3004b
:10358c000040eb00850a0700300037003e01900038
:10359c00ce01900010c0b300900707001e019000f0
:1035ac00ae01900062c6880073c6880011c0b300db
:1035bc0010c0b300790a0700240037003e019000c8
:1035cc00ce01900020c0b300840707001e019000bc
:1035dc00ae01900082c6880093c6880011c0b3006b
:1035ec0020c0b3006d0a0700180037003e019000a0
:1035fc00ce01900030c0b300780707001e01900088
:10360c00ae019000a2c68800b3c6880011c0b300fa
:10361c0030c0b300610a07000c0037003e01900077
:10362c00ce01900040c0b3006c0707001e01900053
:10363c00ae019000c2c68800d3c6880011c0b3008a
:10364c0040c0b300550a0700000000000080fa00db
:10365c00000006000400fa00004f780011079800e3
:10366c001e80fb00e30f50001e003200e30f5000e1
:10367c0005003c00e10f500008003200e20f500042
:10368c000f00320032003700e40f50001e003200f1
:10369c00e50f5000250032002d00370011c0b3009b
:1036ac000040eb003d0a07001e0090008000eb007c
:1036bc00cff5070040c6880051c6880024003700ab
:1036cc0011c0b30010c0b300340a07001e009000f4
:1036dc008000eb00c6f5070060c6880071c6880044
:1036ec001b00370011c0b30020c0b3002b0a070029
:1036fc001e0090008000eb00bdf5070080c688001e
:10370c0091c688001200370011c0b30030c0b3005e
:10371c00220a07001e0090008000eb00b4f50700a1
:10372c00a0c68800b1c688000900370011c0b300dc
:10373c0040c0b300190a07001e0090008000eb0087
:10374c00abf50700c0c68800d1c688000000000099
:10375c000080fa00000006000200fa00004f78001a
:10376c001e80fb00e30f500014003200e30f5000ea
:10377c0005003c00e10f500008003200e20f500041
:10378c000a00320019003700e40f50000f0032001d
:10379c00e50f500011003200140037008040eb00a0
:1037ac000040eb00fd090700100037008040eb00e3
:1037bc0010c0b300f90907000c0037008040eb0083
:1037cc0020c0b300f5090700080037008040eb006b
:1037dc0030c0b300f1090700040037008040eb0053
:1037ec0040c0b300ed090700000000000080fa00a3
:1037fc00000006005200fa00889fbe008a9fbe009f
:10380c008c1f78000f05780070408000814080008c
:10381c0018c0b3006011b80034f507000000e000d8
:10382c0001003c000044eb000804e00005003200fd
:10383c007040800081408000500f9800610f98000c
:10384c0004003700a0702d0031c22300500f9800e7
:10385c00610f9800b0408000c140800018c0b300d8
:10386c006011b80021f507000000e00001003c00e9
:10387c000044eb000804e00005003200b04080007a
:10388c00c1408000700f98000117980004003700a9
:10389c00a0702d0031c22300700f98000117980002
:1038ac00d0408000e140800018c0b3006011b80027
:1038bc000ef507000000e00001003c000044eb00a6
:1038cc000804e00005003200d0408000e140800098
:1038dc00101798002117980004003700a0702d00d5
:1038ec0031c22300101798002117980009c8bf0097
:1038fc000004e0007d003a000f007800800578009d
:10390c007a004700cf02070020079800c902070081
:10391c00300798002e009000e10f500003003a0091
:10392c0010c0b30009e8b700080107003e00900082
:10393c0000407800207798000040eb00307798002a
:10394c0010c0b30040779800200320000e00400008
:10395c00000178000101200080022000780c070093
:10396c0096060700400798004e0090006300b900cf
:10397c00000078000000e8008000e9005107980082
:10398c000000e8000000e8000000d10080004000ca
:10399c000f007800818747000000e8000000d1008c
:1039ac0000004000600798004e00900080407800b6
:1039bc006e009000014878000000eb00000f7800ca
:1039cc000000eb00000f7800390037001e00780073
:1039dc006300b900000078000004e8001e007800c5
:1039ec004200dd00fa004700008040001000be00dd
:1039fc00e1f40700000078004800de008040780009
:103a0c006e00900001707c001e0078006300b9000d
:103a1c00000078000084e8001e0078004200dd0001
:103a2c00fa004700008040001000be00d2f40700ee
:103a3c0000007800804078006e00900001707c00df
:103a4c001e00e8006300b900000678001e00780034
:103a5c004200dd00fa004700008040001004be0068
:103a6c001e0078004200dd00fa0047000080400094
:103a7c001000be00c0f40700000078008000eb00ce
:103a8c00dbf407000001be000800be00e6f30700ef
:103a9c0002002000832c24002af50700b6f407004e
:103aac00804078006e00900001707e001e0fe800d0
:103abc004e0090009e007800808f5000c3ff3500b0
:103acc006e0190004e0090006300b9000000780079
:103adc000000e80080007800a0022000180c07000d
:103aec009a0007008b077800800037000f007800e1
:103afc008005780031060700700798007e00900062
:103b0c006300b900000078000000e8008000e900c4
:103b1c00010f98000000e8000000e8000000d10050
:103b2c00800040000f007800818747000000e8000b
:103b3c000000d10000004000100f98007e009000a3
:103b4c00804078001e089000014878000000eb00cf
:103b5c00100798000000eb00100798003c0037009d
:103b6c001e0090006300b900000078000004e8001b
:103b7c001e0090004200dd00fa004700008040006b
:103b8c001000be007cf40700000078004800de0046
:103b9c00804078001e08900001707c001e00900090
:103bac006300b900000078000084e8001e0090005b
:103bbc004200dd00fa004700008040001000be000b
:103bcc006df4070000007800804078001e0890001b
:103bdc0001707c001e0090000000e8006300b9003a
:103bec00000678001e0090004200dd00fa0047003d
:103bfc00008040001004be001e0090004200dd005a
:103c0c00fa004700008040001000be005af4070084
:103c1c00000078008000eb0075f407000001be0086
:103c2c000800be0080f3070002002000832c240053
:103c3c00c4f4070050f40700804078001e08900080
:103c4c0001707e001e0090000000e8001007980034
:103c5c009e0090007e009000808f5000c0ff3500c9
:103c6c001e0990007e0090006300b90000007800ef
:103c7c000000e80080007800a0022000b00b0700d4
:103c8c007a00470089040700200f98002e08900046
:103c9c0020010700605798006e5090000004e0006f
:103cac0011003a0029000700e2010700400f9800bc
:103cbc004e0890000040780020c798002e08900015
:103ccc000040780030c798000040eb0040c79800d7
:103cdc00200420000e0040000001780001012000ab
:103cec0080022000960b07008b0778006000b8005c
:103cfc0050408800614088006000b8007040880027
:103d0c00814088006000b80090408800a140880085
:103d1c006000b800b0408800c14088006000b80066
:103d2c00d0408800e14088006000b800f040880076
:103d3c00014188008a0778004f0678004f05be00c5
:103d4c004f04be000080fa00000006000c00fa00d0
:103d5c00889fbe008a9fbe008c1f78000f057800dc
:103d6c00b4010700200798000000eb00000f78005a
:103d7c000000eb00000f7800dc0037000f0078002b
:103d8c00800578008d050700300798003e009000f4
:103d9c004300dd00630040008000e900410798000b
:103dac000000e8000000e8000000d10080004000a6
:103dbc000f007800818747000000e8000000d10068
:103dcc0000004000500798002e00900080407800c2
:103ddc005e009000014878003e0090008040780022
:103dec005e009000114098001e0078008040780022
:103dfc005e009000214098000000eb001007980036
:103e0c000000eb0010079800aa0037001e0090007d
:103e1c004300dd00630440001e0078006300b9001d
:103e2c00800078001e00900000804000c200dd0081
:103e3c00401c2100008040001000be00cef30700a3
:103e4c00000078004800de00804078005e009000a2
:103e5c0001707c001e0090004300dd0064044000f3
:103e6c001e0078006300b900800078001e009000ee
:103e7c0000804000c200dd00401c2100008040009a
:103e8c001000be00bcf307000000780080407800f2
:103e9c005e00900001707c001e0090004300dd006d
:103eac00650640001e0078006300b90080007800b1
:103ebc001e00900000804000c200dd00401c21006c
:103ecc00008040001004be001e0078006300b900a2
:103edc00800078001e00900000804000c200dd00d1
:103eec00401c2100008040001000be00a2f307001f
:103efc00000078008000eb00bdf307000001be005d
:103f0c000800be00c8f2070002002000832c240029
:103f1c000cf4070098f30700804078005e009000d6
:103f2c0001707e001e0090004300dd00660440001e
:103f3c001e0078006300b900800078001e0090001d
:103f4c0000804000c200dd00002f210000804000f6
:103f5c001000be0088f30700000078004800de0067
:103f6c00804078005e00900001707c001e00900084
:103f7c004300dd00670440001e0078006300b900b8
:103f8c00800078001e00900000804000c200dd0020
:103f9c00002f2100008040001000be0076f30700c7
:103fac0000007800804078005e00900001707c007a
:103fbc001e0090000000e8004306dd001e007800a3
:103fcc006300b900800078001e0090000080400063
:103fdc00c200dd00002f2100008040001004be0054
:103fec001e0078006300b900800078001e0090006d
:103ffc0000804000c200dd00002f21000080400046
:10400c001000be005cf30700000078008000eb009d
:10401c0077f307000001be000800be0082f2070023
:10402c0002002000832c2400c6f3070052f3070083
:10403c00804078005e00900001707e001e009000b1
:10404c004300dd00690440001e007800c200dd0062
:10405c0000472100008040001000be0046f307001e
:10406c00000078004800de00804078005e00900080
:10407c0001707c001e0090004300dd006a044000cb
:10408c001e007800c200dd000047210000804000c7
:10409c001000be0038f30700000078008040780064
:1040ac005e00900001707c001e0090000000e80093
:1040bc00100798009e0090003e009000808f5000ea
:1040cc0052ff3500de0090003e0090004300dd0002
:1040dc006a00400001017800800078009002200006
:1040ec00970a07008b0778001e0fe8002e0090003f
:1040fc009e007800808f500020ff35008a077800e2
:10410c004f0678004f05be004f04be000080fa0039
:10411c00000006001800fa00300f98000040eb0079
:10412c00004f7800204180000000e00003003a00be
:10413c00be08900021418800130037002041800008
:10414c00be089000008050000000e0000600340023
:10415c00104180000080e80010418800be089000eb
:10416c002141880008003700104180000000e00069
:10417c0003003400104180000000e9001041880069
:10418c00be0890002141880010418000e40f5000cf
:10419c00390034009ec8bf004047980064004700b7
:1041ac00000178001100200010002000640a0700b4
:1041bc00104180000040780050479800650047008f
:1041cc000001780001012000b00220005c0a070009
:1041dc002c0007000000eb001007980009003700c6
:1041ec001e009000c200dd0000472100008140004d
:1041fc006000b8000089be001e0090000000e800be
:10420c00100798001e009000f80f5000f4ff3400c7
:10421c0010c0b3008de8b7000868ef000968ef0024
:10422c006000b80050408800614088006000b80011
:10423c0070408800814088006000b8009040880081
:10424c00a14088006000b800b0408800c1408800e0
:10425c006000b800d0408800e14088006000b800e1
:10426c00f0408800014188002228ef002428ef004c
:10427c0010c0b300004f78001e4078000080fa0098
:10428c00000006000000fa000968ef00040020009e
:10429c0005f82300d2cc2c00c3d42300000020004e
:1042ac0001fa2300380007002228ef002428ef0031
:1042bc00460407000080fa00000006000200fa0025
:1042cc000968ef000400200005f82300d2cc2c0074
:1042dc00c3d423000000200001fa23002a000700a9
:1042ec002228ef002428ef00380407000000eb0020
:1042fc00000f7800070037001e007800c200dd00b8
:10430c0000472100008140006000b8000089be0019
:10431c001e0fe8001e007800f80f5000f6ff340066
:10432c0010c0b3008de8b7000868ef000968ef0013
:10433c006000b80050408800614088006000b80000
:10434c0070408800814088006000b8009040880070
:10435c00a14088006000b800b0408800c1408800cf
:10436c006000b800d0408800e14088006000b800d0
:10437c00f0408800014188002228ef002428ef003b
:10438c000080fa00000006000e00fa0010079800ea
:10439c0021079800320798004307980054079800ab
:1043ac00650798001e019000ae0190002244880021
:1043bc00334488005c28ef006028ef006228ef008f
:1043cc000000eb00000f78000000eb00000f7800fd
:1043dc00070037001e007800c200dd0000472100f6
:1043ec00008140006000b8000089be001e0fe8008c
:1043fc001e007800f80f5000f6ff34003e019000cc
:10440c00ce01900042438800534388005e01900027
:10441c00ee01900042448800534488006e68ef001f
:10442c006428ef006628ef006c28ef000080fa008b
:10443c00000006000000fa00e04280000080fa0054
:10444c00000006002800fa00889fbe008a9fbe006c
:10445c00301798006000b800008fbe002043800029
:10446c000000e00003003200e10f5000c8003200f1
:10447c00830237000000eb00200798001100370082
:10448c00324380002e0090004200dd00be109000f0
:10449c00008040001000be006311b900820178005a
:1044ac002e01900002814100c211dd00c2412100a9
:1044bc00028141000089be002e0090000000e8003f
:1044cc0020079800f0438000ae009000808f5000d1
:1044dc00ebff3500304380000000e80030438800db
:1044ec0030438000e50f500064023400fa004700ae
:1044fc00050009008018eb000000eb002007980075
:10450c00410037000000eb0030079800ae0090002f
:10451c003107980036003700ae0090003e00900046
:10452c00808f50002f0032000000eb0040079800f5
:10453c000000eb0040079800260037004e0090006a
:10454c004200dd00fa004700008040001004be006d
:10455c002e0090006300b900800078004e0090009f
:10456c0000804000c200dd00c041210000804000fe
:10457c001002be003e0090006300b900800078007d
:10458c004e00900000804000c200dd00c0412100c0
:10459c00008040001000be000001be000400be0000
:1045ac0021f1070001f0a1000001be000800be00cf
:1045bc001ef107004e0190004211dd000201470080
:1045cc007a0141000089be004e0090000000e80016
:1045dc0040079800f0438000ce009000808f500080
:1045ec00d6ff35003e0090000000e8003007980030
:1045fc003e009000e50f5000c7ff34002e009000e5
:10460c000000e800200798002e009000e50f5000f5
:10461c00bcff340000002000010c2400300f980077
:10462c00410f98000000eb00200798001e00370097
:10463c002e0090004200dd00fa0047000080400090
:10464c001004be000200200003f823003e08900076
:10465c00ce089000f4f007003e099000ce099000bf
:10466c0038f2070002002000030024004cf1070080
:10467c000001be000800be0049f107000200200046
:10468c000300240046f107002e019000c211dd004a
:10469c0042462100028141000089be002e0090009c
:1046ac000000e80020079800f0438000ae00900066
:1046bc00808f5000deff35000000eb0020079800d3
:1046cc00170037002e0090004200dd00be10900055
:1046dc00008040001000be002e019000c211dd00d1
:1046ec00421c2100028141000089be002e00900076
:1046fc00c200dd0040462100008040001000be00da
:10470c002e019000c211dd00022f21000281410018
:10471c000089be002e0090000000e80020079800e1
:10472c00f0438000ae009000808f5000e5ff350014
:10473c000000200001f8230080a3880091a38800ca
:10474c0010002000e04288000000eb0020079800d9
:10475c00090037002e009000c200dd000047210048
:10476c00008140006000b8000089be002e0090005f
:10477c000000e800200798002e009000f80f500071
:10478c00f4ff34001000200020438800bc013700e7
:10479c000000eb00500798007a0137006000b80069
:1047ac00008fbe000000eb0060079800840037000b
:1047bc003e1090001002be003e10900064004000bd
:1047cc001000be000001be000400be0097f0070000
:1047dc000002be003e109000680040001000be00b9
:1047ec000001be000400be0090f0070018c0b3002a
:1047fc00a2702d0033c223003cf107000000e00042
:10480c0001003c000044eb000804e00063003200af
:10481c005e0090006300b900800078006e0090008c
:10482c0000804000c200dd00002f2100008040000d
:10483c001002be00404480005144800018c0b300f8
:10484c000001be000400be0028f107000000e000db
:10485c0001003c000044eb000804e000250032009d
:10486c005e0090006300b900800078006e0090003c
:10487c0000804000c200dd00401c21000080400090
:10488c001002be006e0090004200dd00be109000d1
:10489c00008040001000be000001be000400be00fd
:1048ac0061f007000002be005e0090006300b900da
:1048bc00800078006e00900000804000c200dd0097
:1048cc00002f2100008040001000be000001be003f
:1048dc000400be00b2f007000001be0099f1070011
:1048ec000001be001e00be0050f00700008fbe008d
:1048fc00300037005e0090006300b9008000780043
:10490c006e00900000804000c200dd00401c2100c1
:10491c00008040001002be006e0090004200dd00de
:10492c00be109000008040001000be000001be00d0
:10493c000400be003cf007000004be005e009000c6
:10494c006300b900800078006e0090000080400089
:10495c00c200dd00002f2100008040001002be00cc
:10496c0040448000514480000001be000400be00a1
:10497c002ef007000001be000800be0088f0070002
:10498c000001be006ff107000001be001e00be005a
:10499c0026f00700008fbe00060037002044800080
:1049ac003144800002002000030024007cf007004a
:1049bc00008fbe006e0090000000e80060079800b9
:1049cc00f0438000ee009000808f500078ff35009f
:1049dc001e00be008ff10700008fbe002044800037
:1049ec003144800018c0b3000001be001e00be00a0
:1049fc00bcf007000000e000010035000044eb00b3
:104a0c000804e000dc0032000000eb0060079800b6
:104a1c004c00370042438000534380005e009000fe
:104a2c006300b900800078006e00900000804000a8
:104a3c00c200dd00401c2100008040001000be00c0
:104a4c006e0290004222dd00be12900004824200f1
:104a5c001403be000202be000001be000600be0030
:104a6c002b0207005e0190006311b90082017800ef
:104a7c006e01900002814100c211dd00421c210038
:104a8c00028141000089be004a4380005b438000e4
:104a9c005e0090006300b900800078006e0090000a
:104aac0000804000c200dd00002f2100008040008b
:104abc001004be006e0090004200dd00be1090009d
:104acc00008040001002be005e0090006300b90040
:104adc00800078006e00900000804000c200dd0075
:104aec00401c2100008040001000be000001be00f0
:104afc000400be00ccef070001f0a1000200200072
:104b0c00031224000ff107000a02be000801be00c8
:104b1c00ff0107005e0190006311b900820178006b
:104b2c006e01900002814100c211dd00022f2100b4
:104b3c00028141000089be006e0090000000e80078
:104b4c0060079800f0438000ee009000808f5000ca
:104b5c00b0ff35005e009000c200dd000047210070
:104b6c00008040001000be000200200003f823006b
:104b7c00aeef07005e019000c211dd00024721007c
:104b8c00028141000089be00304380000000e80033
:104b9c00304388003143800010448000808f5000e7
:104bac0002003d000000eb00bc0037000040eb00b1
:104bbc00604f98000000eb00000f98006600370073
:104bcc000e089000c200dd0000472100008040006c
:104bdc001000be0018c0b30002002000030824001f
:104bec0040f007000000e000010035000044eb003d
:104bfc000804e0004a0032008e089000110f980063
:104c0c003e0037000000eb00200f98002900370011
:104c1c001e0890000000e8006300b90080007800d6
:104c2c002e08900000804000c200dd00401c2100d6
:104c3c00008040001000be001e0990006311b900f6
:104c4c00820178002e09900002814100c211dd0022
:104c5c00421c2100028141000089be001e08900008
:104c6c000000e8006300b900800078002e08900076
:104c7c0000804000c200dd00002f210000804000b9
:104c8c001000be001e0990006311b900820178006b
:104c9c002e09900002814100c211dd00022f21007b
:104cac00028141000089be002e0890000000e8003f
:104cbc00200f9800f0438000ae089000808f5000c9
:104ccc00d3ff35001e0890000000e800c200dd0094
:104cdc0000472100008040001000be001e0990001b
:104cec00c211dd0002472100028141000089be0093
:104cfc001e0890000000e800100f9800e0428000b1
:104d0c008000e9001e089000808f5000bdff3c0021
:104d1c00104380000000e8001043880006003700b4
:104d2c00004380000000e800004388000e0890005b
:104d3c000000e800000f9800114380000043800041
:104d4c0080804000e0428000808f500002003a00da
:104d5c0010c0b300604f98006e4890000004a20091
:104d6c000004e00096ff3a0000438000e042880017
:104d7c0010002000490037005e0090000000e800a1
:104d8c0050079800e0428000de009000808f5000b9
:104d9c0082fe35000000eb00500798001f00370022
:104dac00e24280005e0090004200dd00be109000e8
:104dbc00008040001000be006311b9008201780031
:104dcc005e01900002814100c211dd00421c2100f5
:104ddc00028141000089be00e24280005e0090002a
:104dec00c200dd0040462100008040001000be00e3
:104dfc006311b900820178005e01900002814100cc
:104e0c00c211dd00022f2100028141000089be0089
:104e1c005e0090000000e80050079800f04380000e
:104e2c00de009000808f5000ddff3500e0428000f6
:104e3c00c200dd000047210000814000000020007e
:104e4c0001f823000089be00e04280000000e80069
:104e5c00e0428800e142800000448000808f5000d6
:104e6c0002003a00500020000c0037003043800054
:104e7c000000e8003043880001003700000000000b
:104e8c003143800010448000808f500002003d00b0
:104e9c000000eb0001003700100020004f05be00a1
:104eac004f04be000080fa00000006000a00fa0061
:104ebc00889fbe008a9fbe00400798006000b80023
:104ecc00008fbe000000eb002007980004013700a3
:104edc006000b800008fbe000000eb0030079800a7
:104eec00840037004e0090001002be004e0090006f
:104efc00640040001000be000001be000400be00b3
:104f0c00caee07000002be004e0090006800400090
:104f1c001000be000001be000400be00c3ee07007e
:104f2c0018c0b300a2702d0033c223006fef07002e
:104f3c000000e00001003c000044eb000804e0002d
:104f4c00630032002e0090006300b90080007800ee
:104f5c003e00900000804000c200dd00002f2100c8
:104f6c00008040001002be0040448000514480008c
:104f7c0018c0b3000001be000400be005bef0700c8
:104f8c000000e00001003c000044eb000804e000dd
:104f9c00250032002e0090006300b90080007800dc
:104fac003e00900000804000c200dd00401c21004b
:104fbc00008040001002be003e0090004200dd0068
:104fcc00ce009000008040001000be000001be002a
:104fdc000400be0094ee07000002be002e009000fc
:104fec006300b900800078003e0090000080400013
:104ffc00c200dd00002f2100008040001000be0028
:10500c000001be000400be00e5ee07000001be007a
:10501c00ccef07000001be001e00be0083ee0700af
:10502c00008fbe00300037002e0090006300b900e6
:10503c00800078003e00900000804000c200dd003f
:10504c00401c2100008040001002be003e00900079
:10505c004200dd00ce009000008040001000be0039
:10506c000001be000400be006fee07000004be008d
:10507c002e0090006300b900800078003e00900084
:10508c0000804000c200dd00002f210000804000a5
:10509c001002be0040448000514480000001be005c
:1050ac000400be0061ee07000001be000800be0057
:1050bc00bbee07000001be00a2ef07000001be001e
:1050cc001e00be0059ee0700008fbe000600370020
:1050dc0020448000314480000200200003002400a2
:1050ec00afee0700008fbe003e0090000000e8000d
:1050fc0030079800f0438000be009000808f500075
:10510c0078ff35001e00be00c2ef0700008fbe0006
:10511c00204480003144800018c0b3000001be0060
:10512c001e00be00efee07000000e000010035009d
:10513c000044eb000804e000660032000000eb00c5
:10514c0030079800500037004243800053438000e2
:10515c002e0090006300b900800078003e009000a3
:10516c0000804000c200dd00401c21000080400097
:10517c001000be003e0290004222dd00ce029000e4
:10518c00048242001403be000202be000001be00f5
:10519c000600be005e0007002e0190006311b900ee
:1051ac00820178003e01900002814100c211dd00b5
:1051bc00421c2100028141000089be004043800056
:1051cc005143800002002000030824005def07001b
:1051dc000005be002e0090006300b900800078002e
:1051ec003e00900000804000c200dd00002f210036
:1051fc00008040001004be003e0090004200dd0024
:10520c00ce009000008040001002be002e009000e6
:10521c006300b900800078003e00900000804000e0
:10522c00c200dd00401c2100008040001000be00c8
:10523c000001be000400be00fbed070001f0a10060
:10524c0002002000031224003eef07000a02be00f9
:10525c000801be002e0007002e0190006311b9005a
:10526c00820178003e01900002814100c211dd00f4
:10527c00022f2100028141000089be003e009000f7
:10528c000000e80030079800f0438000be0090005a
:10529c00808f5000acff35002e009000c200dd0066
:1052ac0000472100008040001000be0002002000da
:1052bc0003f82300dded07002e019000c211dd0084
:1052cc0002472100028141000089be00604380003a
:1052dc000b0037002e0090000000e800200798001b
:1052ec00e0428000ae009000808f5000f8fe350048
:1052fc00604380000000e800604388006043800049
:10530c004f05be004f04be000080fa0000000600ee
:10531c001000fa00889fbe00200798003107980003
:10532c004207980053079800640798007507980087
:10533c006e019000fe0190000000200001f8230097
:10534c00b9ed07004e019000de019000fdee070064
:10535c000004be002e019000be0190006e00900073
:10536c00fe009000f7ee07000001be000800be0032
:10537c00aeed0700008fbe0018c0b300a2702d0068
:10538c0033c223001e00be0058ee07000000e000f0
:10539c0001003c000044eb000804e0000200320075
:1053ac001e00be0002003700a0702d0031c2230089
:1053bc004f04be000080fa00000006000000fa0056
:1053cc00300020000080fa00000006000000fa0007
:1053dc006c28ef000080fa00000006000600fa00be
:1053ec00881f7800004f7800120798002307980058
:1053fc001e80fb00e20f5000ea003200e20f50006a
:10540c0005003c000000e00008003200e10f5000f5
:10541c007500320030023700e30f500050013200ab
:10542c00e40f5000bd0132002b0237002108800030
:10543c00f0fc2f0000806000200888001e01900006
:10544c00ae0190000068290081c12400d4ed070052
:10545c0018c0b30002f02f00f377240023ee0700ee
:10546c000000e00001003c000044eb000804e000f8
:10547c005400320021088000f0fc2f0000806000f6
:10548c000040a000200888001e019000ae01900092
:10549c000068290081c12400c1ed07000200200032
:1054ac0003102400beed070018c0b30002f02f005b
:1054bc00f37724000dee07000000e00001003c0033
:1054cc000044eb000804e0003200320021088000a8
:1054dc00f0fc2f00008060000050a0002008880025
:1054ec001e019000ae0190000068290081c12400cb
:1054fc00abed07000200200003282400a8ed0700f4
:10550c0018c0b30002f02f00f3772400f7ed07006a
:10551c000000e00001003c000044eb000804e00047
:10552c0010003200210880000003200001007000f0
:10553c00200888001e019000ae0190000068290030
:10554c0081c1240096ed07000200200003382400de
:10555c0093ed0700e7ed07000000780010088800c5
:10556c00dd0137001e019000ae019000006829009b
:10557c0081c124008aed07000200200003282400ca
:10558c0087ed0700dbed07000000780010088800ad
:10559c00d10137001e019000ae0190000068290077
:1055ac0081c124007eed07000200200003102400be
